:020000040000fa
:080000000002040000000000f2
:020000040000fa
:10000800b2020000b2020000b2020000b202000018
:10001800b2020000b2020000b2020000b202000008
:10002800b2020000b2020000b2020000b2020000f8
:10003800b2020000b2020000b2020000b2020000e8
:020000040000fa
:020000040000fa
:10040000cf8420000eff20000e01880000000000b5
:10041000000020000000e000020032000001200087
:10042000200288000c000700407d2200010020000f
:1004300011000700000020000000e0000200320070
:1004400000000200000000001e2802000000000062
:100450000040da000000fe004440a900e0e7200070
:100460000000e0000300320000002000a00188002e
:100470004440a80000000600910188008000780038
:100480000000eb0015003700e280400032a0b4000d
:100490009101ba00e280400032a0b4009102ba009b
:1004a000e280400032a0b4000002eb00472bde00e7
:1004b000f507b200602ce10004003a000059eb009f
:1004c0008301e900fdff3e00040037006128e100e0
:1004d000010032000082eb00040007001101ba00a5
:1004e0000200e000e8ff3a00000006003159ba00bf
:1004f0008301e9000c0032002159ba008301e900b0
:10050000080032000400e00003003a00e2804000ee
:1005100032a0b400f5ff370011d9ba008301e90019
:10052000faff3a008100e800e180400032a0b40008
:1005300000000600000000000000000000000000b5
:1005400000000000000000000000000000000000ab
:10055000000000000000000000000000000000009b
:10056000000000000040da000000fe0003f0a200de
:10057000889fbe008a9fbe008c1f7800b2000700d3
:10058000b90033006450e1004f0032006420e10004
:100590005200320003826c0007003b000905d000c6
:1005a0000306d000820f54000c065d0002003900e3
:1005b0000200320089017800030678008582550028
:1005c00004003d000003fd008103fd008502ea00f8
:1005d0008b854200840f720002003b006000100017
:1005e000e08018006011b8000005eb007a28e100f7
:1005f0000a00390006007800c75ddd00f707b20089
:10060000878075002d003700828171000a01780013
:10061000610560008180d1000080d3008502e9007f
:10062000f9ff3b00060440008784480002003b00bd
:1006300060041400e0841c000988a3000700320055
:100640008a81710082817100610164008904d10096
:100650000884d3008b05e800170037000978a30051
:1006600013003a000b00e000130034008b05e90092
:100670000804440089844c000a4474000978a300eb
:100680000d003a000b00e000070034008b05e90084
:100690000804440089844c0001003a000b0020004b
:1006a0000978a300f7ff32000001eb0002003700d9
:1006b000828171000a017800280007000cf0a70071
:1006c00001f0a000710037006420e10002003a0050
:1006d000838f6c00710033000801be000200be0071
:1006e0006a0037000001be00420007000470a70046
:1006f00003f0a10003f8a30013003a006509b1005c
:1007000010003200090035006928e10002003500c0
:100710000100280000000500000040008180480022
:100720008502e900fcff3a0000000600f88f420055
:10073000050035008100d1000080d3008502e8006b
:10074000fcff3a00000006008000eb0000000500fe
:100750004f89de0082017800870037008100200089
:10076000618055000b003d000b00200061fe2f0052
:100770000100e1001d00340082817100610164000c
:100780008904d1000884d3000000e800faff3a0091
:10079000710020006100640003007000020060002e
:1007a0000900320061044400e0844c000988a5007f
:1007b000050032008b05e8006808e10002003a00fd
:1007c0008904d1000884d300f20f20000258e10010
:1007d00005003d00c75ddd00f907b20089807500a6
:1007e00008007800000006000bf827008b00780056
:1007f00000000500c70ade00f107b200f50fb200e5
:1008000008003200e1cf4200020032000170a00077
:1008100024000500810f700001003200040805006b
:1008200044000500810f700002003a00140005002a
:100830008502e9000000400081c04800fcff3b0049
:100840000170a000240005000004be00e9ff0700bd
:100850000003be000405be000200be00e5ff070065
:10086000844f7500000006000200be006450e100e5
:10087000050036006420e100020036000968a3008c
:1008800001003a000800be000160a0004f06780099
:100890004f05be004f04be0000000600f0ff2f0011
:1008a000f1ff2700f9ff3700889fbe008a9fbe0036
:1008b0008c1f7800e4ff0700ebff330003866c0019
:1008c0006450e100240032006420e100270032007f
:1008d0006150e100220032006120e100210032007d
:1008e0008b854200eb07b1000134b800003ab80034
:1008f0000804420089844a00013ab8000030b80078
:100900008880400009014a000400330000004000d4
:1009100081804800020149008b05e900c909dd001a
:10092000830170000100320013002000c814de00b3
:100930004814dd004709de001200b200c808de00de
:100940000884700085ff070001f0a1000cf0a700eb
:1009500001f0a000cdff37006120e100cfff3200a1
:100960000801be000200be00f7ff37006150e10041
:10097000fcff3a00c9ff3700881f780003047800a5
:100980000300e00007003d0060001000e080180058
:1009900060011900e081190002003b0001f02d0008
:1009a000030037000400070008f0a70001f0a000d2
:1009b0004f04780000000600889fbe008a9fbe009a
:1009c000008270000402710004827100260032006f
:1009d0000004be000200be006011b8006b092000d8
:1009e000950220000182cf000a0039000541b100c4
:1009f0000082cf00070039000541b1000982cf0015
:100a0000040039000541b1000882cf00010039001f
:100a10000541b10005425200120032000a003b00bd
:100a200082817100610164008100d1000080d300e7
:100a30008984d3000884d3008b05e8000442e800d1
:100a4000f7ff3a00070037000804440089844c008f
:100a500000004800818048008b05e9000442e9005d
:100a6000f9ff3a003dff07004f05be004f04be00ee
:100a700000000600881f7800020478000801780052
:100a8000cc010700080040004f0478000000060079
:100a90000000fa00881f780000047800ea815700ff
:100aa0003fb9970088007800a05320000700070096
:100ab0000000e000020035008040eb000174780087
:100ac0004f0478000080fa00000006006200fa007f
:100ad000889fbe008a1f7800000578008104780096
:100ae000020478008300780080f92f000f00400096
:100af000ae0307009a979f00a9979f000000eb00a4
:100b0000b09f9f001885fb008a04fb000a05ea00dd
:100b10004f55de0050022000808f54000d0032003f
:100b2000e10f55000b003a000a01780088007800b8
:100b30002f9097009f91970003000100a0979f00be
:100b40000000e0008e0032003f9897000000e800af
:100b5000b09f9f000a04440050022000808f540080
:100b6000040032000900e000e6ff3a003f989700d9
:100b7000840037000000eb00909f9f00809f9f0043
:100b8000f0979f00e0979f00d0979f00c0979f002d
:100b90000700370061842000010050000000400081
:100ba000a183200061007800df98970001007000a9
:100bb000d09f9f00880478000904780038457800a9
:100bc0008a00fb0060842000810107000000e00033
:100bd000f0ff3a00a1c2b300814f55000e003a0069
:100be000cf8897000180e900c08f9f001000780037
:100bf000c09f9f000000e00005003d000000ea00eb
:100c0000c09f9f005f9897000020a000d09f9f008a
:100c10000904e8000f003700c09f9f000000eb00b0
:100c200005003700f2ff2700820f5000020032005b
:100c30006a01b90002804000090478008804780045
:100c4000b900fb000103b100e98f5000f5ff360049
:100c5000c09f9f00e0c2b300984f10000200320016
:100c60000080eb0019003700a0c2b300d84f10007d
:100c700007003a00cf8897000180e900c08f9f00ed
:100c800010007800a09f9f000804e80010003700c3
:100c90000000eb00a09f9f0088007800050037004f
:100ca000f3ff2700830f5000020032006a02b900f0
:100cb0000400410001047800880078003101fb0045
:100cc0000203b100e90f5100f5ff3600a09f9f001d
:100cd000984478008900fb00208320003c01070035
:100ce0000000e000020032000804e80001003700c4
:100cf0008044eb00c97f9f0080c6b30080cf5400c2
:100d000004003a0098cf14000a003a0066405000f0
:100d100006003700c0c6b30080cf540005003a007b
:100d200098cf140003003a0065404000c07f9f0048
:100d30000804e8001801fb00e3fb2f008f8141004d
:100d400081f92f008f804000a0f92f000f00400094
:100d5000100007000000e00009003a00e1fb2f004e
:100d60008f804000a0f92f000f00400053020700c1
:100d70000000e000020035000804e80061ff3700d1
:100d80000080eb004f0578004f04be000080fa00a1
:100d900000000600881f7800e4c6b300844f5100ad
:100da000b600320010003c006b425200844f5100ec
:100db0001800320005003c0054c2b300844f5100bb
:100dc000ee00320084c5b3000f00370044c6b30004
:100dd000844f51001400320065424200844f51009c
:100de000e9003a001000370004c7b300844f5100f7
:100df000d50032005300350065424200844f510057
:100e00005000320063424200844f5100de003a003d
:100e10004c0037001181e90082087800f000900052
:100e200012417800d600370020629000c5c6b3009a
:100e3000854f520007003a00910278006482520008
:100e4000840878001402be004fabde0086037800f1
:100e50001100370015c7b300854f52000300320060
:100e6000a5c6b300854f520006003a0091027800f3
:100e700068825200840878005403be004402be0019
:100e8000050037001182e900840878001402780018
:100e9000cfa2de00612bb9000498be000690be0010
:100ea000a060900088c6b30088cf50000d003200cb
:100eb00028c6b30088cf500004003a000402fb00ab
:100ec000cfa2de00612bb9000800370048c7b3008d
:100ed00088cf5000030032006644440088cf5000a1
:100ee00004003a00cfa2de00612bb9000498be00d6
:100ef0000690be003002be002003be00f00090004d
:100f0000e00f5200e08f5a00e00f5b00e08f5b00c3
:100f100002003d00d4c2b300080037000012900068
:100f20000418a30002003200b4c2b300030037006b
:100f30000408a3004c00320004c2b30084f178001e
:100f40004700370020629000c5c6b300854f5200ad
:100f500006003a009102780064825200840878000a
:100f60001402be006033b8001100370015c7b3008b
:100f7000854f520003003200a5c6b300854f5200d2
:100f800006003a00910278006882520084087800d6
:100f90005403be004402be00050037001182e90080
:100fa00084087800140278008002eb006033b800f7
:100fb0000498be000690be00a060900088c6b300f2
:100fc00088cf50000d00320028c6b30088cf5000f3
:100fd00004003a000482fb008002eb006033b8009a
:100fe0000800370048c7b30088cf50000300320024
:100ff0006644440088cf500004003a008002eb00b1
:101000006033b8000498be000690be0080109000c7
:101010000138a300140032003002be002003be00dd
:10102000e00f5200e08f5a00e00f5b00e08f5b00a2
:101030000d00320081c7b300814f51000300320020
:1010400081c5b300814f510007003a00f0009000c5
:1010500004c3b30084f178008100e80082f17800d5
:101060008100e80071009800f0009000818141004b
:1010700063009800824078003e003700a061900035
:10108000c4c6b3001181e90084cf510022003200b0
:101090000a003c006442520084cf51002500320017
:1010a00004c2e80084cf51001300320068425200ad
:1010b00084cf51001e003a000a00370044c7b30035
:1010c00084cf51001b0032006642420084cf5100a1
:1010d000180032006942520084cf510014003a00d7
:1010e0000500370082087800920078004058900090
:1010f000804878002c003700820878009200780041
:10110000600a9000cfa2de00612bb9008498be0077
:101110008690be0024003700820878009200780094
:1011200060099000cf91de008288be001e0037006b
:101130001181e90082087800920078006008900030
:1011400080087800180037001181e90082087800d3
:1011500012027800cfa2de00612bb9000498be0015
:101160000690be00f000900081814100630098006d
:1011700081c7b300220007000b003700f000900089
:1011800082f1780006003700f00090008181410074
:101190000204e00001003a0052c2b3008249780024
:1011a0008100e800710098000000eb004f04780017
:1011b000000006008001780002003700b159780075
:1011c0000201e9000200e000fcff3a000000060016
:1011d000020037000304e00006003200000178003e
:1011e00002007800b041780081cf5100f9ff3a0049
:1011f000010037000001eb0002007800000006004b
:10120000fc874700889fbe008a9fbe008c9fbe005f
:101210008e1f78000006780080c5b30080cf500094
:101220000a0032007740400080cf50000a003200b0
:101230006940400080cf50000b0032001082200037
:1012400080bf9f00ae0020000a003700028120000e
:1012500082bf9f00060037001382200083bf9f00db
:101260008e002000030037001482200084bf9f00fe
:101270000e0120003c02be002c03be000605be008d
:101280000404be0040c6b30080cf5000030032000b
:101290006540400080cf50000b003a00e00f520044
:1012a000e08f5a00e00f5b00e08f5b0006003d001e
:1012b0006000b8006011b800040450008584580034
:1012c0000605590087855900e80f570004003200d1
:1012d00040002000f00f570038003a0001003700ae
:1012e00030002000e00f5400e08f5c00e00f5d0054
:1012f000e08f5d0004003a00dc0890008d012000c2
:101300000100e000060032008e00e90088806000e5
:101310008fba9700e5c07800f1ef9f007d012000b3
:10132000800078008100e900050033008b05d100c2
:101330000a85d3008984d3000884d300f9ff3700dd
:10134000089ebe000a96be00120037008d06e90016
:101350008e00e900848060000fb99700e2c1780038
:1013600082fd2f000f01410003f17e008000780014
:101370008100e900050033008783d1000683d30094
:101380008582d3000482d300f9ff3700049ebe009b
:101390000696be003c02be002c03be00e00f5200c9
:1013a000e08f5a00e00f5b00e08f5b008b003400a1
:1013b0000d00e000e5ff3c00880037002c60900045
:1013c00081c6b300814f50000b00320006003c0084
:1013d0000004e00008003200e6c05000814f5000d9
:1013e0004e003a0004003700c1c6b300814f5000e0
:1013f0004a003a00210037000800e00004003a00eb
:101400005c0890008d0120000000e0000600320022
:10141000110009000e84d8000fb99700e2c07800cf
:10142000f1ef9f007d012000110009000e84d8001b
:101430000a003700110009000e04d8008d06e900eb
:101440000e81b900020454008fb8970061417c00fe
:1014500081fd2f008f80400082f07e000004780024
:101460000800e000020032000d00e000f1ff3c0047
:10147000cfc4de00614db90025003700e00f5400f5
:10148000e08f5c0004003a005c0890008d012000b1
:101490000000e000070032006171b9000800be00e2
:1014a000630107008fb99700e3417800f3ef9f00d5
:1014b0007d0120006171b9000800be004c010700e9
:1014c0000b0037006171b9000800be003901070048
:1014d0008d06e90000f1b900020454000fba97002c
:1014e000e4427c0084fd2f000f02420005f27e00e2
:1014f0000004be00e00f5000e08f580002003200f0
:101500000d00e000efff3c004fcdde008a057800c3
:10151000089ebe000a96be0030003700e00f54005f
:10152000e08f5c00e00f5d00e08f5d0004003a009a
:101530005c0890008d0120000000e00009003200ee
:101540006172b900612bb9000800be000a01be003b
:10155000da0107000fba970064427800f4ef9f00a9
:101560007d0120006172b900612bb9000800be0046
:101570000a01be00ca0107000d0037006172b90000
:10158000612bb9000800be000a01be00cf010700b0
:101590008d06e90000f2b900040454008fba9700e8
:1015a00065427c0085fd2f008f82420084f27e0020
:1015b000009ebe000296be003c04be002c05be008c
:1015c000e00f5400e08f5c00e00f5d00e08f5d00f5
:1015d000020034000d00e000e8ff3c00e80f570077
:1015e00010003a000c1090000038a3000d003200eb
:1015f000f78f560006003e0085fd2f008f824200c7
:10160000e5c07e0000c3b30080cf5000050032006b
:101610008d06e90002c3b30081fd2f008f804000da
:1016200082f07e0078811600120e98006c00900007
:1016300083fd2f008f8141008d804100ddfe07007a
:101640001c089000dc089000810f500006003d004f
:1016500000805000000e98000c1090000040a10087
:10166000001698000f0037000100e0000d003d005b
:101670008c109000f4806000f08f500009003a0058
:101680007c099000fc009000810051000c09900042
:1016900082805000008050004240a90001003400c8
:1016a000000e98004f0778004f06be004f05be00a1
:1016b0004f04be00cf01b100000006000400fa0094
:1016c000889fbe008a9fbe008c1f780000047800af
:1016d00001067800f80d9000780090008085550094
:1016e00008089000808555001808900080855500f6
:1016f00028089000808555003808900080855500a6
:1017000048089000808555000002220090bf9f008d
:1017100000032300a0bf9f00081090000028a30032
:1017200015003a000b00e000130034000b057800b0
:101730008a047800e20f55000100360029002000dd
:10174000c801900009017800ee8057005800900011
:1017500003000100500498000000e0008c003200fb
:101760006808900009004000600c980009055500c9
:101770004240a900eeff3c00780190000200e0002a
:101780000c003400c80190008c00780058009000d4
:1017900003000100500498008080eb000000e0008e
:1017a0007c003200e8089000780090000080400043
:1017b000600c9800880c90000900e00011003400d3
:1017c00009057800e28f5400010036002a0020004d
:1017d000c80190000a017800ec8057005800900082
:1017e00003000100500498000000e000680032008f
:1017f000680890000a004000600c98008a84540039
:10180000edff3700180990000200e0000c003400e2
:10181000c8019000e800900058009000030001000b
:10182000500498008080eb000000e0005900320076
:10183000e80890001808900000804000600c9800b4
:10184000a80c90000900e0001100340009057800a0
:10185000e28f5400010036002a002000c8019000e9
:101860000a017800ec805700580090000300010046
:10187000500498000000e000450032006808900025
:101880000a004000600c98008a845400edff370085
:10189000380990000200e0000e003400e8009000db
:1018a0001808900080804000c80190005800900007
:1018b00003000100500498008080eb000000e0006d
:1018c00034003200e80890003808900000804000a2
:1018d000600c9800c80c90000900e0001100340072
:1018e00009057800e28f5400010036002a0020002c
:1018f000c80190000a017800ec8057005800900061
:1019000003000100500498000000e00020003200b5
:10191000680890000a004000600c98008a84540017
:10192000edff3700081090008000eb000028a300b6
:10193000180032000b00e000160034008b04780021
:1019400009057800e28f5400010036002a002000cb
:10195000c80190000a017800ee80570058009000fe
:1019600003000100500498000000e000080032006d
:10197000680890000a004000600c98008a845400b7
:101980004240a900eeff3c008000eb000100370060
:101990008080eb00010078004f0678004f05be0004
:1019a0004f04be000080fa00000006000108780025
:1019b00000000600839f68000100e00002003d0077
:1019c00060001000e08018000300e00002003d000d
:1019d00060011100e0811900050007004f00e000e0
:1019e00002003b0060001000e080180000000600cc
:1019f0006022b800060220000000d0008180d200e2
:101a00000482d2008582d2000000a00002025200af
:101a100083825a00030031000202420083824a009e
:101a20000000a1000603e900f3ff3a0000000600f1
:101a3000efff07000400be0000000600889fbe0004
:101a40008a9fbe0030044200b0844a0030054b003b
:101a500090854b006000b1000898be000a90be005f
:101a60000440e10005c8e10006d0e10007d8e1002c
:101a700002003100680040001008e8004f05be0079
:101a80004f04be0000000600889fbe008a9fbe0073
:101a90003004be002005be000418540005985c0008
:101aa00006185d0007985d00110020000440e10069
:101ab00005c8e10006d0e10007d8e10001003900c7
:101ac0008000eb00108810004f05be004f04be00e0
:101ad000000006001200fa00889fbe008a9fbe0028
:101ae0008c9fbe00e0b79f00f1b79f0082bf9f00b0
:101af00093bf9f000605be000404be000000eb007b
:101b0000d0b79f00c0b79f00b0b79f00a0b79f009d
:101b100090b79f000006eb005fb19700cfb0970031
:101b2000820141003fb097000200e00004003d0048
:101b3000370007007e805700c0ff07000300370012
:101b4000330007007e805700cfff0700dfb6970005
:101b50000d00e0000c0035006fb29700ffb2970057
:101b60000fbb97009fbb97001000200001002000d2
:101b70006011b800000272008182720002037300db
:101b8000838373001b0007000c06e800010420009b
:101b9000810f5600e0ff3a000d00e00004003d0018
:101ba0000802be000a03be007e805700a3ff0700a4
:101bb0005fa897000000e00005003a001fb2970000
:101bc000afb297003fb39700cfb39700090007006b
:101bd0006fb09700ffb097000fb997009fb99700bb
:101be0004f06be004f05be004f04be000080fa0045
:101bf000000006000100070000000600a4b79f00d7
:101c0000b5b79f00c6b79f00d7b79f00000006007a
:101c10004f09de0082817100b3b79f004f01de00e3
:101c20008180400082807000a1b79f008fb0970034
:101c30004f09de00000040000200700090b79f00d6
:101c40007fa897004f01de008180400082807000f5
:101c500081b79f000d0007004f3ade0000004000f2
:101c600004007000f0af9f0008000700040242006b
:101c700085824a0006034b0087834b00dfff070085
:101c80000802be000a03be00000006002fb2970043
:101c9000bfb297004fb39700dfb397000000060074
:101ca000881f780018002000881f780089ff07002f
:101cb0008f87e9004f04780000000600801feb00ca
:101cc00084ff07008f87e90000000600889fbe00a0
:101cd0008a9fbe00e00f5000e08f5800e00f5900cf
:101ce000e08f59000c003d006044b8006055b8001a
:101cf0000000540081805c0002015d0083815d0072
:101d0000180020001500070008003d00180007001b
:101d10000004eb00050037000004eb000f00070093
:101d200002003d001200070018002000dcff070041
:101d30000800e000060032006022b8006033b800fe
:101d40000000520081805a0002015b0083815b0029
:101d50004f05be004f04be0000000600e00f520019
:101d6000e08f5a00e00f5b00e08f5b000000060090
:101d70006044b8006055b8000402540085825c00dd
:101d800006035d0087835d0000000600889fbe009b
:101d90008a9fbe008c1f7800e00f5000e08f580033
:101da000e00f5900e08f59000d003d006044b8007d
:101db0006055b8000000540081805c0002015d00a5
:101dc00083815d001c0020000820e10009a8e100db
:101dd0000ab0e1000bb8e1000d003d00080037003b
:101de0000006eb00e00f5200e08f5a00e00f5b00ae
:101df000e08f5b0006003d006044b8006055b8000d
:101e00000402540085825c0006035d0087835d0048
:101e1000aaff07000c00e000060032006022b800b4
:101e20006033b8000000520081805a0002015b005c
:101e300083815b004f0678004f05be004f04be0053
:041e40000000060098
:020000040000fa
:101e4400000000000000000000000000000000008e
:101e5400000000000000000000e00000ff1f000080
:101e6400000000000000000000000000000000006e
:101e7400000000000000000000f7000080000000e7
:101e8400000000000000000000000000000000004e
:101e94000000000080c00000e0700000381c00005a
:101ea4000e06000007030000000000000000000010
:101eb400000000000000000000800000808000009e
:101ec400808000000000000000000000000000000e
:101ed40000000000000000000000000000000000fe
:101ee40000000000000000000000000000000000ee
:101ef40000000000000000000000000000000000de
:101f040000000000000000000000000000000000cd
:101f140000000000000000000000000000000000bd
:101f240000000000000000000000000000000000ad
:101f3400000000000000000000000000000000009d
:101f4400000000000000000000000000000000008d
:101f54000000000000000000000100000f3e00002f
:101f640070e00000c08000000000000000000000dd
:101f7400000000000000000000000000000000005d
:101f840018600000c0000000000000000000000015
:101f9400003e0000ffc3000000000000000000003d
:101fa400000000000000000000000000000000002d
:101fb40000000000060600001ff000000000000002
:101fc400e03f0000100000000000000000000000de
:101fd40000000000000000000000000000000000fd
:101fe40000000000000000000000000000000000ed
:101ff40000000000000000000000000000000000dd
:1020040000000000000000000000000000000000cc
:1020140000000000000000000000000000000000bc
:1020240000000000000000000000000000000000ac
:10203400000000000000000000000000000000009c
:10204400000000000000000000000000000000008c
:10205400000000000000000000000000000000007c
:102064000000000001030000070e00000c1800002f
:102074003870000060e00000c08000000000000034
:10208400000000000000000008380000604000006c
:1020940000000000010700000f1c000038e00000f1
:1020a400c0800000000000000000000000000000ec
:1020b400000000000000000000070000040400000d
:1020c4000700000000000000000000000000000005
:1020d40000000000000000000000000000000000fc
:1020e40000000000000000000000000000000000ec
:1020f40000000000000000000000000000000000dc
:102104000000000000700000c0000000000000009b
:1021140000000000000000000000000000000000bb
:1021240000000000000000000000000000000000ab
:10213400000000000000000000000000000000009b
:10214400000000000000000000000000008000000b
:10215400e030000030400000c080000080800000bb
:1021640080000000000000000000000000000000eb
:10217400000000000000000001010000030700004f
:10218400060c00001c18000030700000e0c00000c5
:102194008000000000180000102000000000000073
:1021a40001030000070e00001c38000070e000006e
:1021b400800000000000000000000000000000009b
:1021c400000000000000000000000000008000008b
:1021d40040400000202000001018000070c00000e3
:1021e40000000000000000000000000000000000eb
:1021f40000000000000000000000000080c000009b
:10220400301800000c06000007fc000080000000ed
:1022140000000000000000000000000000000000ba
:1022240000000000000000000000000000000000aa
:10223400000000000000000000000000000000009a
:102244000000000000000000000000003ee3000069
:102254000000000000880000800000001000000062
:1022640087f80000000000000000000000000000eb
:10227400000000000000000000000000000000005a
:102284000000000000000000000000000001000049
:10229400030f0000bcf80000400000000000000034
:1022a4000000000018700000400000000000000062
:1022b400030700000e3c0000f0e000008000000076
:1022c400000000000000000080c00000403f00004b
:1022d4000000000000000000210000000041000098
:1022e40007040000fc0000000000000000000000e3
:1022f4000000000000000000fe0b000009080000c0
:10230400181000001010000010100000171c00002e
:10231400f8000000000000000000000000000000c1
:1023240000000000000000000000000000000000a9
:102334000000000000000000000000000000000099
:102344000000000000000000000000000007000082
:102354000c18000030e1000000e00000f80e00005e
:102364000300000000000000000000000000000066
:102374000000000000000000000000000000000059
:1023840000000000000000000080000080e0000069
:10239400703c00001f070000000000000000000067
:1023a40000000000007000000800000000000000b1
:1023b400000000000000000000030000fffe000019
:1023c400000000000000000001030000063c0000c3
:1023d40060c00000e001000000800000f010000078
:1023e400080c0000030000000000000000000000d2
:1023f4000000000000000000ff00000000c000001a
:1024040040c00000000000000000000000000000c8
:10241400ff80000000000000000000000000000039
:1024240000000000000000000000000000000000a8
:102434000000000000000000000000000000000098
:102444000000000000000000000000000000000088
:1024540000000000007f0000407f00000100000039
:102464000000000000000000000000000000000068
:102474000000000000800000c0c000006070000088
:10248400301800001c0e00000703000001000000cb
:10249400000000000000000000c0000070100000f8
:1024a4001000000000000000000000000000000018
:1024b40000000000c0e00000783e00000f010000b2
:1024c4000000000000000000000000000000000008
:1024d40000ff000087980000e0ff000000000000fb
:1024e40000000000000000000000000000000000e8
:1024f40000000000000000003f200000203f00001a
:10250400202f0000382000002020000020200000a0
:10251400203f000000000000000000000000000058
:1025240000000000000000000000000000000000a7
:102534000000000000000000000000000000000097
:102544000000000000000000000000000000000087
:1025540000000000000000000000000000c00000b7
:10256400c0e0000060300000381800000c0c0000cf
:102574000607000003010000010000000000000045
:10258400000000000000000000000000e03800002f
:10259400080000000000000000000000000000002f
:1025a4000000000000c00000e0700000381c0000c3
:1025b4000e070000030000000000000000000000ff
:1025c4000000000000000000000000000000000007
:1025d40000000000000000000101000000000000f5
:1025e40000000000000000000000000000000000e7
:1025f40000000000000000000000000000000000d7
:1026040000000000000000000000000000000000c6
:1026140000000000000000000000000000000000b6
:1028440000000000e0e00000e0e00000e0e0000044
:10285400e0e00000e0e00000e0e00000e0e0000074
:10286400e0e00000e0e00000e0e000000000000024
:1028740000800000e0e00000e0e00000e000000074
:102884000000000000e00000e0e00000e0e00000e4
:1028940000000000e0e00000e0e00000e0000000d4
:1028a40000000000e0e00000e0e00000e0e00000e4
:1028b400c000000000000000e0e00000e0e00000d4
:1028c400e000000000000000e0e00000e0e00000a4
:1028d400e0e00000e0e000008000000000000000f4
:1028e40000e00000e0e00000e0e00000e0e00000c4
:1028f400e0000000000000000000000000e0000014
:10290400e0e00000e0e00000e0e00000e0000000a3
:10291400000000000000000060e00000e0e00000b3
:10292400e0e000008000000000c00000e0e00000e3
:10293400e0e00000e02000000000000000000000d3
:10294400000000000303000003030000ffff000079
:10295400ffff0000ffff000003030000030300006b
:10296400031f0000ffff0000ffff0000fc00000049
:10297400c0ff0000ffff00003fff0000fffe00005b
:1029840080000000feff0000ffff00007f03000046
:1029940000000000ffff0000ffff0000ff00000038
:1029a40000000000ffff0000ffff0000ff3f0000e9
:1029b400fffe0000e0000000ffff0000ffff00003a
:1029c400ff00000000000000ffff0000ffff000008
:1029d400ff0f0000ffff0000fff0000000e0000018
:1029e400ffff0000ff0f0000ffff0000ffff0000db
:1029f400ff0000000000000000f00000ffff0000e6
:102a0400ffff0000071f0000ffff0000fffe0000a3
:102a1400e000000000000000000100000f3f000083
:102a2400ffff0000fffc0000feff0000ffff0000ae
:102a34001f0700000100000000000000000000006b
:102a4400000000000000000000000000ffff000084
:102a5400ffff0000ffff0000000000000000000076
:102a640000000000037f0000ffff0000fffc0000e7
:102a7400ffff0000ff030000000f0000ffff000045
:102a8400fffc0000ffff0000ff3f0000000000000b
:102a940000000000ffff0000ffff0000ff00000037
:102aa40000000000ffff0000ffff0000ff00000027
:102ab400011f0000fffe0000ffff0000ffff0000f9
:102ac400ff00000000000000ffff0000ffff000007
:102ad400ff000000001f0000ffff0000feff0000d9
:102ae400ff3f000000000000ffff0000ffff0000a8
:102af400ff00000000e00000ffff0000ffff0000f7
:102b0400ff790000787800007fff0000ffff0000dd
:102b1400fffe0000c000000000c00000f0fc000048
:102b2400ffff0000ff1f00003fff0000ffff000049
:102b3400fce0000080000000000000000000000035
:102b44000000000000000000000000000707000073
:102b54000707000007070000000000000000000055
:102b64000000000000000000070700000707000045
:102b74000707000003000000000000000707000032
:102b8400070700000707000007000000000000001e
:102b9400000000000707000007070000070000000e
:102ba40000000000070700000707000007000000fe
:102bb40000000000010700000707000007070000ed
:102bc40007000000000000000707000007070000de
:102bd40007000000000000000707000007070000ce
:102be40007000000000000000707000007070000be
:102bf40007000000060700000707000007070000a1
:102c040000000000000000000000000007070000b2
:102c1400070700000704000007070000070700007b
:102c24000707000000000000000100000707000083
:102c34000707000007060000000000000000000075
:102c44000000000000000000000000000000000080
:102c54000000000000000000000000000000000070
:102c64000000000000000000000000000000000060
:102c74000000000000000000000000000000000050
:102c84000000000000000000000000000000000040
:102c94000000000000000000000000000000000030
:102ca4000000000000000000000000000000000020
:102cb4000000000000000000000000000000000010
:102cc4000000000000000000000000000000000000
:102cd40000000000000000000000000000000000f0
:102ce40000000000000000000000000000000000e0
:102cf40000000000000000000000000000000000d0
:102d040000000000000000000000000000000000bf
:102d140000000000000000000000000000000000af
:102d2400000000000000000000000000000000009f
:102d3400000000000000000000000000000000008f
:102d4400000000000000000000000000000000007f
:102d5400000000000000000000000000000000006f
:102d6400000000000000000000000000000000005f
:102d7400000000000000000000000000000000004f
:102d8400000000000000000000000000000000003f
:102d9400000000000000000000000000000000002f
:102da400000000000000000000000000000000001f
:102db400000000000000000000000000000000000f
:102dc40000000000000000000000000000000000ff
:102dd40000000000000000000000000000000000ef
:102de40000000000000000000000000000000000df
:102df40000000000000000000000000000000000cf
:102e040000000000000000000000000000000000be
:102e140000000000000000000000000000000000ae
:102e2400000000000000000000000000000000009e
:102e3400000000000000000000000000000000008e
:102e44007e4200007e000000447e0000400000003e
:102e54003a2a00002e0000002a2a00003e0000004a
:102e64000e0800003e0000002e2a00003a00000078
:102e74003e2a00003a000000020200003e0000006a
:102e84003e2a00003e0000002e2a00003e00000002
:102e94002e2a00003e000000020600000e0600007c
:102ea4000200000000640000180400006418000020
:102eb400003c000040400000207c0000000c0000aa
:102ec40030400000300c0000003c000040300000a6
:102ed400403c0000000000003e1c00000800000010
:102ee400000400001e1f00001e040000001000006b
:102ef4003c7c00003c10000000200000403e00002c
:102f04000102000000220000140800001422000046
:102f14000000000038280000380000000000000015
:102f24001038000010000000000000000010000035
:102f34000000000000080000780800000000000005
:102f440000000000151500000a000000007f0000ca
:102f54007f0900000901000000100000207f00002c
:102f6400010100000004000004000000011f000033
:102f740000000000191500001200000000400000cd
:102f840060500000484400000006000009090000e9
:102f940006000000000f0000020100000100000014
:102fa40000000000011f00000100000000440000b8
:102fb400444a00004a51000000140000741c000040
:102fc40017140000005100004a4a00004444000065
:102fd40000000000000400000404000000000000e1
:102fe4007c5400005444000000080000082a00003b
:102ff4001c080000007c0000007c0000447c0000f1
:1030040000040000027f0000020400000010000021
:10301400207f0000201000000000000000000000dd
:103024000000000000000000006f0000000000002d
:10303400000000000700000007000000001400006a
:103044007f1400007f14000000000000070400004b
:103054001e0000000023000013080000646200004a
:103064000036000049560000205000000000000017
:103074000007000000000000000000001c22000007
:103084004100000000000000412200001c0000007c
:1030940000140000083e00000814000000080000ae
:1030a400083e000008080000000000005030000046
:1030b40000000000000800000808000008080000e4
:1030c400000000006060000000000000002000001c
:1030d4001008000004020000003e000051490000f6
:1030e400453e000000000000427f00004000000058
:1030f4000042000061510000494600000021000028
:10310400414500004b31000000180000141200007b
:103114007f100000002700004545000045390000ed
:10312400003c00004a490000493000000001000052
:103134007109000005030000003600004949000041
:10314400493600000006000049490000291e00001d
:1031540000000000363600000000000000000000ff
:103164005636000000000000000800001422000091
:1031740041000000001400001414000014140000a6
:1031840000000000412200001408000000020000ba
:103194000151000009060000003e0000415d0000ee
:1031a400494e0000007e000009090000097e00006d
:1031b400007f00004949000049360000003e00003d
:1031c4004141000041220000007f00004141000015
:1031d400413e0000007f00004949000049410000d1
:1031e400007f00000909000009010000003e000002
:1031f40041490000497a0000007f000008080000ef
:10320400087f000000000000417f00004100000032
:1032140000200000404100003f010000007f00004a
:103224000814000022410000007f0000404000001c
:1032340040400000007f0000020c0000027f0000fc
:10324400007f000004080000107f0000003e000022
:1032540041410000413e0000007f000009090000d8
:1032640009060000003e000041510000215e0000fc
:10327400007f0000091900002946000000460000f4
:10328400494900004931000000010000017f0000ad
:1032940001010000003f000040400000403f0000ea
:1032a400000f000030400000300f0000003f00001d
:1032b40040300000403f000000630000140800009c
:1032c40014630000000700000870000008070000f5
:1032d400006100005149000045430000003c00002b
:1032e4004a490000291e00000002000004080000f2
:1032f4001020000000000000417f000000000000da
:10330400000400000201000002040000004000006c
:1033140040400000404000000000000000030000a6
:103324000400000000200000545400005478000001
:10333400007f0000484400004438000000380000ca
:1033440044440000442000000038000044440000cd
:10335400487f000000380000545400005418000056
:10336400000800007e09000001020000000c0000bb
:1033740052520000523e0000007f0000080400008a
:103384000478000000000000447d000040000000bc
:1033940000200000404400003d0000000000000048
:1033a4007f1000002844000000000000417f00005e
:1033b40040000000007c00000418000004780000b5
:1033c400007c0000080400000478000000380000bd
:1033d4004444000044380000007c00001414000041
:1033e400140800000008000014140000187c0000f9
:1033f400007c0000080400000408000000480000ed
:103404005454000054200000000400003f44000015
:1034140040200000003c000040400000207c0000f0
:10342400001c000020400000201c0000003c0000a4
:1034340040300000403c0000004400002810000020
:1034440028440000000c000050500000503c0000d4
:1034540000440000645400004c44000000000000dc
:10346400083600004141000000000000007f000019
:103474000000000000410000413600000800000088
:10348400000400000204000008040000007f0000a3
:103494006b6b00006b7f0000000000007c440000a8
:1034a4007c00000000000000087c00000000000018
:1034b4000000000064540000480000000000000008
:1034c4004454000028000000000000001c1000000c
:1034d40078000000000000005c540000240000009c
:1034e4000000000078540000740000000000000098
:1034f400641400000c000000000000007c54000074
:103504007c000000000000005c5400003c0000004f
:1035140000780000242600002578000000780000d0
:103524002526000024780000007000002a290000ed
:103534002a7000000078000025240000257800008f
:1035440000200000545600005578000000200000c0
:103554005556000054780000002000005655000025
:1035640056780000002000005554000055780000f3
:10357400007c00005456000055440000007c00000c
:103584005556000054440000007c000056550000cd
:1035940056440000007c00005554000055440000cf
:1035a4000038000054560000551800000038000090
:1035b400555600005418000000380000565500000d
:1035c400561800000038000055540000551800003b
:1035d40000000000447e00004500000000000000e0
:1035e400457e00004400000000000000467d00000d
:1035f4004600000000000000457c0000450000007b
:1036040000000000487a00004100000000000000b3
:10361400497a000040000000000000004a790000e0
:103624004200000000000000497800004100000052
:10363400003800004446000045380000003800000f
:1036440045460000443800000038000046450000ac
:1036540046380000003800004544000045380000aa
:1036640000300000484a00004930000000300000eb
:10367400494a000048300000003000004a49000078
:103684004a30000000300000494800004930000082
:10369400003c000040420000413c0000003c0000af
:1036a40041420000403c0000003c00004241000058
:1036b400423c0000003c000041400000413c00004e
:1036c400003c000040420000217c0000003c00005f
:1036d40041420000207c000000380000424100000c
:1036e40022780000003c000041400000217c0000e2
:1036f400004e000051710000110a00000058000043
:103704006464000024100000007c00000a11000022
:10371400227d000000780000120900000a710000f8
:10372400000000000004000002010000000100008d
:10373400020400000000000000000000020000007d
:103744000200000000300000484500004020000056
:1037540000000000007b00000000000000380000b2
:103764004444000038440000004000003e4900008a
:10377400493600000008000004080000700c000036
:10378400006000005048000050600000002000006d
:103794005255000059300000003800005454000015
:1037a4005400000000000000007f00004100000001
:1037b400004000002214000018600000007c00009b
:1037c400202000001c200000004400003c040000f5
:1037d4007c440000004000003c120000120c000079
:1037e400004100006355000049410000003800001a
:1037f400444400003c04000000080000043c0000b5
:103804004424000000080000147f00001408000095
:10381400004e000071010000714e000000450000e0
:103824002911000029450000000d0000515100003d
:10383400513d0000000000000005000002050000ea
:1038440000400000004000000040000000000000b4
:10385400081c00003e000000001c00001c1c0000ae
:1038640000000000000000007008000007000000d5
:10387400000000000808000008000000000000002c
:103884001d150000170000000000000007050000df
:103894000700000000000000111500000a000000ed
:1038a4000000000000000000000000000004000010
:1038b4003c41000020000000007c000016150000c0
:1038c4001608000000210000160800003442000021
:1038d400007f0000091d0000010300000038000003
:1038e400545400001408000000000000007c000094
:1038f40040400000007f00000e1c0000387f0000e4
:1039040000410000225d0000221c0000001c000099
:103914003e1c000008000000007f00007f7f0000c4
:103924007f7f0000007700007b0100007b770000b0
:10393400007f000043750000437f0000007f00000b
:103944006f550000437f000000400000404000002d
:103954004040000000440000425f00004244000078
:10396400004000005e4500005e4000000040000092
:10397400485500005e4000000000000004080000fc
:103984001020000000030000070e00001c38000097
:1039940000010000030700000f1f0000007c00006e
:1039a400787000006040000000080000081c00005f
:1039b400221c0000000000001c2200001c0000006b
:1039c40000020000000800000020000000040000c5
:1039d4003e3f00003e040000001000003e7e000058
:1039e4003e100000005500002a5500002a55000032
:1039f400002400002a7f00002a12000000040000b6
:103a04001e1f00001e040000000000000000000053
:103a140000000000000000000000000000000000a2
:103a24000000000000000000000000000000000092
:103a34000000000000000000000000000000000082
:103a44000000000000000000000000000000000072
:103a54000000000000000000000000000000000062
:103a64000000000000000000000000000000000052
:103a74000000000000000000000000000000000042
:103a84000000000000000000000000000000000032
:103a940000000000000000004163000074690000a1
:103aa40076650000722000006c6500002020000094
:103ab400202000002020000020200000626c000074
:103ac40075650000746f00006f74000068200000ca
:103ad4003f0000004f750000690000004e6f0000b9
:103ae4006e000000437900006c6900006e64000001
:103af40072650000206400006520000020200000a2
:103b0400202000002072000065660000657200003d
:103b1400656e0000636500000031000000320000a3
:103b240000330000003400000000000025640000a1
:0c3b340000250000190e00003600000003
:020000040000fa
:103b40000000fa00c482a9006000b8005005070018
:103b5000c482a8006000b8004d050700c482a90017
:103b60006000b8004a0507000080fa000000060067
:103b70000800fa0040168000004f780020168000f0
:103b800000407800614060000080fb001007980052
:103b9000201680000000d100614060000080fb0022
:103ba00020079800c402a800c422a800c482a9006b
:103bb000400020000100200035050700c462a80075
:103bc000c442a900f00f20004016880040002000e9
:103bd000010020002e050700c482a800400120003b
:103be000010020002a050700c482a900400120002e
:103bf0000100200026050700c482a8004000200024
:103c00000100200022050700501680006047980040
:103c1000c482a90040002000010020001c0507000c
:103c20001e80fb00401688001e00900000407800b7
:103c3000614060000080fb0061006000221680008f
:103c4000e1ff2f0081006100010070002016880054
:103c50002e00900000407800614060000080fb0072
:103c6000610060000000400022168000d1ff2f009c
:103c70008100610001007000201688006e409000f5
:103c80000080fa00000006000000fa006000b800a2
:103c9000ff040700c4e2a8006000b800fc040700ad
:103ca000c4e2a90003003700400120000100200009
:103cb000f7040700aeff07000080fb007000600003
:103cc0000000e000f8ff3a000080fa000000060063
:103cd0000200fa00c4e2a800c482a9006000b80093
:103ce000eb040700c402a800c422a800c462a90013
:103cf000c442a900f0032000000f7800c822ef00a2
:103d00001e007800501688006000b800e00407002c
:103d1000c482a8006000b800dd040700c482a900c6
:103d20006000b800da0407000080fa000000060016
:103d30000200fa00c482a900c402a800c422a8009c
:103d4000c462a900c442a900e0032000000f78006b
:103d5000c822ef001e007800501688006000b800ee
:103d6000cb040700c482a8006000b800c8040700a4
:103d7000c482a9006000b800c50407000080fa00f2
:103d8000000006000200fa00410922000000eb00da
:103d9000010001004109220000042000010001008f
:103da000c402a800c422a8000040eb00004f780025
:103db0001200370081f021001e80fb00010001008d
:103dc000ca22ef00c462a900c442a8000040eb0070
:103dd000104798000400370059ff07001e4090006c
:103de0000040e800104798009e409000f0c3b300e8
:103df00080cf5000f8ff36001e4fe8001e407800cc
:103e0000e74f5000ebff36000080fa00000006008c
:103e10000600fa0040479800201680000040780015
:103e2000614060000080fb00000f780020168000d9
:103e30000000d100614060000080fb001007980086
:103e400060f6210000000100c442a900c462a9007c
:103e5000c402a800c422a800ce40900080cbb300ca
:103e600000c070000080fb005016880034ff07007f
:103e70001e00780000407800614060000080fb0078
:103e80006100600022168000e1ff2f0081006100c8
:103e900001007000201688001e009000004078008d
:103ea000614060000080fb00610060000000400095
:103eb00022168000d1ff2f008100610001007000f8
:103ec000201688000080fa00000006000000fa00ba
:103ed000020037006000b8006d04070024ff0700ef
:103ee0000004e000fbff35000080fa00000006003f
:103ef0000200fa00004f7800f4ff0700c442a80057
:103f0000c462a900c822ef001e80fb005016880082
:103f10000bff0700104080000000e8001040880000
:103f20000080fa00000006000200fa00004f78004e
:103f30001140800000042000808f500002003a00f1
:103f4000180007000228ef001e407800e8ff070075
:103f50000080fa00000006000200fa00004f78001e
:103f60001e80fb0061006000004078000004e0005b
:103f700002003200c402a80001003700c402a900f8
:103f80001e80fb00620060000000e00002003200c2
:103f9000c422a80001003700c422a9000080fa0052
:103fa000000006000200fa002016800000407800a1
:103fb000614060000080fb00000f78002016800048
:103fc0000000d100614060000080fb0061006000e3
:103fd00022168000e1ff2f008100610001007000c7
:103fe000201688001e0078000040780061406000c4
:103ff0000080fb006100600000004000221680008d
:10400000d1ff2f00810061000100700020168800a0
:1040100020168000610060000000e000090032000e
:10402000104080008000e80080002000000178003f
:10403000110009008200d8008000fd0000407800d7
:1040400073ff07000080fa00000006000200fa007b
:10405000c482a90040168000004f7800f00f2000b5
:1040600040168800c442a800c462a8006000b800de
:1040700007040700c482a8006000b8000404070019
:10408000c482a9006000b80001040700c482a8002f
:104090006000b800fe03070050168000104798002b
:1040a0006000b800fa030700c482a9001e80fb006c
:1040b00040168800104080000000e8001040880092
:1040c0001e4090000080fa00000006000400fa0084
:1040d00020479800314798007cff07002e40900051
:1040e0000080fb004300de000040780048ff07002e
:1040f000410922003e4090000080fb0001000100c9
:10410000d2ff0700004f7800410922003e40900096
:104110000080fb00010001001e40780074ff0700d2
:104120000080fa00000006000200fa00004f78004c
:10413000f0c3b3009e40780080cf500005003e00e1
:1041400010c0b30084ff07001e80fb0010408800f1
:104150000500370020c0b3007fff07001e80fb0072
:104160000004b1001040880058ff0700c442a900b5
:10417000c462a9009e80fb00f003200080806000e4
:104180000004200001007000501688006cfe07003b
:104190000080fa00000006000400fa00004f7800da
:1041a00011479800224798001e40780018ff07002a
:1041b0001e409000dcff07002e4090004cff0700df
:1041c0000080fa00000006000400fa00004f7800aa
:1041d00011479800224798001e4078000cff070006
:1041e0001e409000d0ff07002e40900000c0ea0063
:1041f0003fff07000080fa00000006000600fa00fa
:10420000204798003147980042479800534798004c
:104210004e4090000004e000040032005e41900037
:10422000be4090002e409000dbff070010002000f1
:10423000000f7800030037005e4090003aff07004f
:104240001e0fe8004e4090000080fb009e0f5000c3
:10425000f9ff3c000080fa00000006001600fa009a
:104260002057980031579800220f98000000eb006b
:10427000200798003e5090000080fb004300de00c5
:10428000004078000080fb00300798003e0090005e
:1042900067001000400798003e5090000080fb002f
:1042a0006700600068001000500798000ec8bf004b
:1042b0008080fb005e0090000008dd00404f980009
:1042c0002e5090008080fb00504080000088b90094
:1042d00080007800604080000080400070079800f7
:1042e000fe009000010f98000000eb00000f780026
:1042f0000000eb00100798001e00370063802000cc
:104300009341780050408000004178000e089000f2
:10431000804078001e00780000407800b7ff07005a
:104320004e0090008000e9001e009000808f500039
:104330000c003a002e089000e10f500009003a00ee
:10434000832522000e0890006c0040000001eb0065
:10435000800078001e00780003000100100020009b
:10436000200798001e0fe8001e0090000000e800e3
:10437000100798009e0090004e009000808f500023
:10438000deff3500fe009000010f980063802000e2
:104390009341780050408000804078004040800089
:1043a0000040780000c150000e0890008040780066
:1043b0001e0078000040780090ff07005140800008
:1043c00040408000008050008e0890000080400037
:1043d000000f980040408000004178000e089000d7
:1043e000804078001e00780000407800ce499000a0
:1043f00082ff0700fe009000010f98001e0fe800ea
:104400000000eb001007980023003700fe0090002a
:10441000010f980063802000934178005040800095
:1044200080407800404080000040780000c150008b
:104430000e089000804078001e0078000040780050
:104440006eff070051408000404080000080500017
:104450008e08900000804000000f9800e38020004c
:104460009341780040408000004178000e089000a1
:10447000804078001e007800004078005fff070051
:10448000fe009000010f98001e0fe8001e00900033
:104490000000e800100798009e0090003e00900089
:1044a000808f5000d9ff35000080fa000000060020
:1044b0000800fa004047980051479800624798006a
:1044c0006e4090000000fb00100798001e00900056
:1044d0006600b900000078000000e800e1742900df
:1044e0006140780000417800de4090004e4090002e
:1044f00029ff070010002000000f78000b00370094
:104500001e0090006600b900000078001e00400008
:10451000e17429006140780075fe07005e4090005c
:104520000040e800504798001e0fe8001e00780089
:10453000e60f5000f2ff34000080fa000000060091
:104540000800fa00404798005147980062479800d9
:104550006e4090000000fb00100798000000eb0088
:10456000000f78000f0037001e0090006600b900b1
:10457000000078001e004000e174290061407800ce
:1045800000c0ea0000417800de4090004e409000fc
:1045900001ff07005e4090000040e800504798008f
:1045a0001e0fe8001e007800e60f5000eeff3400fa
:1045b0000080fa00000006000600fa0020079800bc
:1045c0000040eb00004f78000040eb0010479800df
:1045d0000040eb0020479800170037002e40900065
:1045e0000080fb00e6004000f0072000808f5000b4
:1045f000050034000040eb00204798001e4090006a
:104600000040e800104798001e00fb00ae0090003c
:1046100000804000104078001e4fe8000041780004
:10462000ae4090001e409000a1ff07002e40900079
:104630000040e800204798001e00fb00ae009000fc
:1046400000804000104078000004e000e3ff3a00e2
:104650000080fa00000006000600fa0040479800bb
:1046600000c8b300004f78000000eb00100798006e
:10467000170037004e4090001e4060000004e0002c
:104680000700320010408000804078000040800029
:104690000040780012c3b30085ff07000600370012
:1046a000104080008040780000408000004078008a
:1046b00002c3b3007eff07001e0090000000e80068
:1046c000100798001e80fb000000d100004f78000a
:1046d0001e009000e70f5000e6ff34000080fa0053
:1046e000000006000800fa002047980031479800b3
:1046f00042479800330798000000eb00000f780055
:104700000e0037004e4090000080fb004200dd00ac
:104710001e004000217229006140780000417800ad
:10472000be4090002e4090009bfe07003e4090004f
:104730000040e800304798001e0fe8001e00780097
:10474000e40f5000efff34000080fa000000060084
:104750000600fa002007980020168000004078002c
:10476000614060000080fb00000f78002016800090
:104770000000d100614060000080fb00100798003d
:10478000c402a800c422a800c822ef00cffd070081
:10479000c442a900c462a900ae009000f00f20003e
:1047a00080806000000c200001007000501688001e
:1047b000e3fc07001e0078000040780061406000c4
:1047c0000080fb006100600022168000e1ff2f00e6
:1047d0008100610001007000201688001e0090001a
:1047e00000407800614060000080fb0061006000d4
:1047f0000000400022168000d1ff2f0081006100e0
:1048000001007000201688000080fa0000000600f9
:104810000400fa00100798000040eb00004f7800f9
:10482000170037000040eb00104798000f003700da
:104830001e80fb00c700dd001e4090000080fb00d2
:10484000008040009e0090000080400010407800f2
:10485000004178009e4090001e4078004efe070008
:104860001e4090000040e800104798009e409000d5
:10487000b0c7b30080cf5000edff36001e4fe800f8
:104880001e407800e74f5000e6ff36000080fa0037
:10489000000006000200fa000000eb00000f7800a4
:1048a000c482a9004000200001002000f801070098
:1048b000c462a800c442a9004000200001002000fa
:1048c000f3010700c482a80040012000010020007d
:1048d000ef010700c482a900400120000100200070
:1048e000eb010700c482a800400020000100200066
:1048f000e701070050168000000f7800c482a9006d
:104900004000200001002000e10107000008200015
:104910001e0060000080fa00000006000200fa009d
:10492000000f78001e007800104078000080fb0027
:104930000001eb00800078000000eb0047fe07005c
:104940001e00e800104078000080fb000001eb0032
:10495000800078001000200040fe07001e80e80064
:10496000104078000080fb000001eb008000780020
:104970002000200039fe07009e0078006380400080
:10498000104078000080fb000001eb008000780000
:104990003000200031fe07000080fa000000060011
:1049a0000a00fa002007980031079800024f98008b
:1049b0000040eb00004f78002e0090002047980048
:1049c0000040eb0010479800230037001e40900085
:1049d0000080fb00e600400000042000808f5000b3
:1049e00027003c000e489000e14f50000c003a00b8
:1049f0001e00fb00be0090000080400010407800c8
:104a00000001fb001e4fe8001e4090008080fb006c
:104a10002e4090000080fb00c9fe07000b0037000d
:104a20001e00fb00be009000008040001040780097
:104a30000001fb001e4fe8001e4090008080fb003c
:104a40002e4090000080fb0099fe07001e40900061
:104a500066404000104798001e00fb00be0090001a
:104a600000804000104078000004e00005003200a3
:104a70001e407800e94f5000d4ff34000100370099
:104a8000000000000080fa00000006000a00fa00a2
:104a90002047980031479800220798003307980074
:104aa000440798000040eb00004f7800be409000a3
:104ab000114798004e0090000000e00032003a00dc
:104ac000f007200040079800300037003e4090007b
:104ad0000080fb00e60040004e009000808f5000f8
:104ae000050034009e409000314798002e40900011
:104af0000040e800204798003e009000e10f500081
:104b00000f003a001e00fb00ae0090000080400045
:104b1000104078000001fb001e4fe8003e4090006e
:104b20008080fb002e4090000080fb0084fe070088
:104b30003e40900066404000304798000e0037002d
:104b40001e00fb00ae009000008040001040780086
:104b50000001fb001e4fe8003e4090008080fb00fb
:104b60002e4090000080fb0051fe07003e40900068
:104b700066404000304798003e4090000040e8000a
:104b80003047980001003700000000001e00fb00c5
:104b9000ae00900000804000104078000004e0006b
:104ba000caff3a000080fa00000006001200fa0076
:104bb000889fbe005007980062079800730798000e
:104bc000010f98000e0890004200dd00de0090000a
:104bd000008040001001be001207980023079800d3
:104be0000000eb00000f78001c0037006e00900002
:104bf000fe009000bbee0700004078000080fb0044
:104c0000cf80de00d2ee07000004be001e00780058
:104c10004200dd00de009000008040001000be0079
:104c20001e019000ae0190001fef07000001be00c2
:104c30000800be001cef0700020020000320240033
:104c40004bee0700a7ee07008040780066004700a3
:104c50001e004000014878001e0fe8001e0078008a
:104c6000e30f5000e1ff34004f04be000080fa0063
:104c7000000006000800fa004047980051479800dd
:104c8000624798006e4090000080fb00801f780013
:104c900080d92900801f78000e0078007cef070083
:104ca000e48757000002eb008001eb000e01780062
:104cb000de4090004e40900074ff07000080fa0034
:104cc000000006000800fa000000eb00000f78006a
:104cd0000000eb0010079800e4004700b2d929005b
:104ce00003000900b258780026fc070020002000cd
:104cf00047fc0700a00520000bfd07005005200021
:104d00007bfc0700a005200007fd0700cffc070083
:104d100051fe070000202100a1072000dc00070051
:104d2000300020003afc0700a0052000fefc070030
:104d3000a00a20006efc0700a0052000fafc070076
:104d4000c2fc070044fe070000202100a10720004c
:104d5000cf0007000bfc070064004700effe0700d0
:104d60000000eb00000f78000f00370064004700e0
:104d70001e004000104078000080fb008000e8002a
:104d80000004200000017800110009008200d80012
:104d90008000fd0080407800640047001e00400055
:104da000014878001e0fe8001e007800e30f500055
:104db000eeff3400e8ff37000000fa000080fa0040
:104dc000000006000000fa000080fa000000060063
:104dd0000000fa000080fa00000006000000fa005f
:104de0000080fa00000006000000fa000080fa00cf
:104df000000006000000fa00e2fb07000002eb00e2
:104e00008001eb00e2d42900f10020001000200016
:104e10001eff07000002eb008001eb00c2d6290054
:104e2000a10020005000200018ff07000002eb0046
:104e30001300200002d72900a10520005000200007
:104e400012ff070000902000d1032000900007000f
:104e50000002eb0013002000c2d62900a1002000b0
:104e60005000200009ff07000002eb008001eb006a
:104e700002d72900a10520005000200003ff0700f1
:104e800000982b00a102200081000700bdfb070055
:104e90000002eb008001eb0042d72900f100200066
:104ea00010002000f9fe07000002eb0013002000b4
:104eb000f2d829005100200050002000f3fe070026
:104ec0000002eb008001eb0012d929003102200022
:104ed00050002000edfe07000002eb008001eb0017
:104ee00032d929001104200050002000e7fe0700fd
:104ef0000002eb008001eb0052d92900f1052000ef
:104f000050002000e1fe070000402d0001032000ba
:104f10005f0007000002eb008001eb00f2d82900df
:104f20005100200050002000d8fe07000002eb00d6
:104f30001300200012d92900310220005000200067
:104f4000d2fe070000f824002101200050000700d5
:104f50000002eb008001eb0012d929003102200091
:104f600050002000c9fe07000002eb0013002000e3
:104f700032d929001104200050002000c3fe070090
:104f800000902000d1032000410007007dfb0700b6
:104f90000080fa00000006000000fa005f00070031
:084fa0000080fa000000060089
:020000040000fa
:104fa80000080000080000000000000008080000d9
:104fb800080000000200000014001800001c000097
:104fc800ff000000320800001a0000000200000084
:104fd800686a6c00747a4c0000000100000200004e
:104fe8000400080000100000000020002b2d230002
:104ff800300000001008000022000000020000003d
:105008003031320033343500363738003941420008
:105018004344450046003000313233003435360011
:10502800373839006162630064656600000000007b
:045038000000000074
:020000040000fa
:10503c000200fa00c022ef00c822ef00e224ef00c9
:10504c000040eb00004f780000502300c10020000e
:10505c000c0007001bfb070047fb07002032290050
:10506c00e8fd070000202100a10720000500070033
:10507c0011ff07005cff0700c4ff07000080fa0067
:04508c00000006001a
:020000040000fa
:10509000f03fb1000180b10006003500ee030900c9
:1050a00000000000403fb1000180b100fbff3d0067
:1050b0001000b000203fb000020035000080090061
:0850c0000000000000000600e2
:020000040000fa
:1050c8000000fa000080fa00000006000000fa0064
:1050d8000080fa00000006000000fa000080fa00d4
:1050e800000006000000fa000080fa000000060038
:1050f8000000fa000080fa00000006000000fa0034
:105108000080fa00000006000000fa000080fa00a3
:10511800000006000000fa0080892200000001005b
:105128000080fa00000006000000fa000080fa0083
:10513800000006000000fa000080fa0000000600e7
:0c5148000000fa000080fa0000000600e1
:020000040000fa
:0200000401f009
:04000000ffff0000fe
:020000040000fa
:0200000401f009
:04000800ffff0000f6
:020000040000fa
:0200000401f009
:04000c0058ff000099
:020000040000fa
:0200000401f009
:04001000bbff000032
:020000040000fa
:0200000401f009
:04001400ffff0000ea
:020000040000fa
:0200000401f009
:04001800f7ff0000ee
:020000040000fa
:0200000401f009
:04001c00feff0000e3
:00000001FF
