:020000040000fa
:080000000002040000000000f2
:020000040000fa
:100008009a0200009a0200009a0200009a02000078
:100018009a0200009a0200009a0200009a02000068
:100028009a0200009a0200009a0200009a02000058
:100038009a0200009a0200009a0200009a02000048
:020000040000fa
:020000040000fa
:100400000f8020000eff20000e0188000000000079
:10041000000020000000e000020032000001200087
:10042000200288000c000700a061200001002000cd
:1004300011000700000020000000e0000200320070
:100440000000020000000000aa05020000000000f9
:100450000040da000000fe004440a9000000200037
:100460000000e0000300320000002000a00188002e
:100470004440a80000000600910188008000780038
:100480000000eb0015003700e280400032a0b4000d
:100490009101ba00e280400032a0b4009102ba009b
:1004a000e280400032a0b4000002eb00472bde00e7
:1004b000f507b200602ce10004003a000059eb009f
:1004c0008301e900fdff3e00040037006128e100e0
:1004d000010032000082eb00040007001101ba00a5
:1004e0000200e000e8ff3a00000006003159ba00bf
:1004f0008301e9000c0032002159ba008301e900b0
:10050000080032000400e00003003a00e2804000ee
:1005100032a0b400f5ff370011d9ba008301e90019
:10052000faff3a008100e800e180400032a0b40008
:0c053000000006000040da000000fe00a1
:020000040000fa
:10053c000000fa00c482a9006000b800ac010700fa
:10054c00c482a8006000b800a9010700c482a900f9
:10055c006000b800a60107000080fa000000060049
:10056c000600fa0020168000004078006140600010
:10057c000080fb00000f7800201680000000d100e6
:10058c00614060000080fb0010079800401680005e
:10059c0040479800f00f200040168800c442a90084
:1005ac00c462a800c402a900c422a9006000b8005b
:1005bc008f010700deff07006000b8008c01070008
:1005cc0050168000504798006000b8008801070062
:1005dc004e4090000080fb00401688001e00780002
:1005ec0000407800614060000080fb00610060000a
:1005fc0022168000e1ff2f008100610001007000d5
:10060c00201688001e0090000040780061406000b9
:10061c000080fb006100600000004000221680009a
:10062c00d1ff2f00810061000100700020168800ae
:10063c005e4090000080fa00000006000000fa0006
:10064c006000b8006a010700c4e2a8006000b800ae
:10065c0067010700c4e2a900030037004001200035
:10066c000100200062010700bdff07000080fb00b5
:10067c00700060000000e000f8ff3a000080fa0013
:10068c00000006000200fa00c482a9006000b80055
:10069c0057010700c402a900c422a900c462a90022
:1006ac00c442a900f0032000000f7800c822ef001c
:1006bc001e007800501688006000b8004c0107003e
:1006cc00c482a8006000b80049010700c482a900d8
:1006dc006000b800460107000080fa000000060028
:1006ec000200fa00c482a900c402a900c422a90015
:1006fc00c462a900c442a900e0032000000f7800e6
:10070c00c822ef001e007800501688006000b80068
:10071c0037010700c482a8006000b800340107004c
:10072c00c482a9006000b800310107000080fa0003
:10073c00000006000200fa00000f7800c402a900b5
:10074c00c422a900c822ef00c462a900c442a900b7
:10075c001e017800e1006100e00320000100700040
:10076c005016880072ff07000080fa000000060097
:10077c000200fa000040eb00004f78001300370035
:10078c001e407800160007000040eb002200070016
:10079c00ca22ef00c462a900c442a8000040eb00ca
:1007ac00104798000400370061ff07001e409000be
:1007bc000040e800104798009e409000f0c3b30042
:1007cc0080cf5000f8ff36001e4fe8001e40780026
:1007dc00e74f5000eaff36000080fa0000000600e8
:1007ec000200fa00004f780019000700c442a9006b
:1007fc00c462a900c402a900c422a90080cbb30022
:10080c001e4070000080fb005016880048ff070057
:10081c000080fa00000006000200fa00004f780089
:10082c000b000700c442a900c462a9009e80fb0013
:10083c00f0032000808060000004200001007000a4
:10084c00501688003aff07000080fa0000000600ee
:10085c000000fa00020037006000b800e400070056
:10086c003fff07000004e000fbff35000080fa00aa
:10087c00000006000200fa00004f7800f4ff0700a9
:10088c00c442a800c462a900c822ef001e80fb006d
:10089c005016880026ff07000080fa0000000600b2
:1008ac000200fa00004f78001e80fb00610060001f
:1008bc00004078000004e00002003200c402a900ed
:1008cc0001003700c402a8001e80fb00620060001b
:1008dc000000e00002003200c422a9000100370031
:1008ec00c422a8000080fa00000006000200fa00f2
:1008fc00f00f200040168800c462a800c442a80073
:10090c000bff070050168000004f7800c822ef0044
:10091c001e4078000080fa00000006000400fa0077
:10092c002047980031479800c9ff07003e409000cf
:10093c000080fb004300de0000407800a8ff0700a9
:10094c002e4090008080fb0000042000008060009e
:10095c000000e0000300320020c0b300d0ff07000d
:10096c000200370010c0b300cdff07002e409000ee
:10097c00f043b200a8ff0700dcff0700004f78002f
:10098c00daff0700004f78002e409000f043b200d1
:10099c00a1ff07003e4090000080fb006700600054
:1009ac00110020000008dd00804078001e40780017
:1009bc0000c07000afff07000080fa0000000600c6
:1009cc000400fa00204798002e4090000000fb0025
:1009dc0001fe2f00010f40001e0078006300b900db
:1009ec0000007800000f7800000028001e00400076
:1009fc00104078009fff07001e00e800010028004f
:100a0c00614078009bff07001e80e8000100280071
:100a1c006140780097ff07000040eb0095ff07004e
:100a2c000080fa00000006000400fa00100798008d
:100a3c000040eb00004f7800060037001e00fb0062
:100a4c009e00900000804000104078001e4fe8008f
:100a5c00dbff07001e00fb009e00900000804000a2
:100a6c00104078000004e000f4ff3a000080fa0027
:100a7c00000006000400fa00100798000040eb008c
:100a8c00004f7800060037001e00fb009e0090000f
:100a9c0000804000104078001e4fe800c8ff07009f
:100aac001e00fb009e00900000804000104078006b
:100abc000004e000f4ff3a000080fa000000060099
:100acc000200fa000000eb00000f7800c482a900bd
:100adc00400020000100200045000700c462a8006f
:100aec00c442a90040002000010020004000070083
:100afc00c482a80040012000010020003c00070037
:100b0c00c482a90040012000010020003800070029
:100b1c00c482a8004000200001002000340007001f
:100b2c0050168000000f7800c482a90040002000fd
:100b3c00010020002e000700000820001e006000ad
:100b4c000080fa00000006000400fa000000eb0030
:100b5c00000f78000000eb0010079800c022ef0097
:100b6c00c822ef00c4e2a800c482a800c402a900f5
:100b7c00c422a900c3fe0700fdfe0700800220006e
:100b8c00000f7800150037000000eb0010079800ec
:100b9c000b0037001e009000804078001e0078008b
:100bac00004078005dff070000e2240001002000f7
:100bbc000f0007001e0090000000e80010079800ce
:100bcc001e009000e90f5000f2ff340000a8210035
:100bdc0061002000060007001e0fe80070072000cf
:100bec009e007800808f5000e7ff3400e3ff370051
:020000040000fa
:100bfc00f03fb1000180b10006003500ee030900a2
:100c0c0000000000403fb1000180b100fbff3d003f
:100c1c001000b000203fb000020035000080090039
:080c2c000000000000000600ba
:020000040000fa
:040c340000000000bc
:020000040000fa
:0200000401f009
:04000000ffff0000fe
:020000040000fa
:0200000401f009
:04000800ffff0000f6
:020000040000fa
:0200000401f009
:04000c0058ff000099
:020000040000fa
:0200000401f009
:04001000bbff000032
:020000040000fa
:0200000401f009
:04001400ffff0000ea
:020000040000fa
:0200000401f009
:04001800f7ff0000ee
:020000040000fa
:0200000401f009
:04001c00feff0000e3
:00000001FF
