:020000040000fa
:080000000002040000000000f2
:020000040000fa
:100008009a0200009a0200009a0200009a02000078
:100018009a0200009a0200009a0200009a02000068
:100028009a0200009a0200009a0200009a02000058
:100038009a0200009a0200009a0200009a02000048
:020000040000fa
:020000040000fa
:100400000f8020000eff20000e0188000000000079
:10041000000020000000e000020032000001200087
:10042000200288000c000700e07e20000100200070
:1004300011000700000020000000e0000200320070
:1004400000000200000000006c0702000000000035
:100450000040da000000fe004440a9000000200037
:100460000000e0000300320000002000a00188002e
:100470004440a80000000600910188008000780038
:100480000000eb0015003700e280400032a0b4000d
:100490009101ba00e280400032a0b4009102ba009b
:1004a000e280400032a0b4000002eb00472bde00e7
:1004b000f507b200602ce10004003a000059eb009f
:1004c0008301e900fdff3e00040037006128e100e0
:1004d000010032000082eb00040007001101ba00a5
:1004e0000200e000e8ff3a00000006003159ba00bf
:1004f0008301e9000c0032002159ba008301e900b0
:10050000080032000400e00003003a00e2804000ee
:1005100032a0b400f5ff370011d9ba008301e90019
:10052000faff3a008100e800e180400032a0b40008
:10053000000006000040da000000fe00889fbe00b8
:100540008a9fbe0030044200b0844a0030054b0050
:1005500090854b006000b1000898be000a90be0074
:100560000440e10005c8e10006d0e10007d8e10041
:1005700002003100680040001008e8004f05be008e
:100580004f04be0000000600889fbe008a9fbe0088
:100590003004be002005be000418540005985c001d
:1005a00006185d0007985d00110020000440e1007e
:1005b00005c8e10006d0e10007d8e10001003900dc
:1005c0008000eb00108810004f05be004f04be00f5
:1005d000000006001200fa00889fbe008a9fbe003d
:1005e0008c9fbe00e0b79f00f1b79f0082bf9f00c5
:1005f00093bf9f000605be000404be000000eb0090
:10060000d0b79f00c0b79f00b0b79f00a0b79f00b2
:1006100090b79f000006eb005fb19700cfb0970046
:10062000820141003fb097000200e00004003d005d
:10063000370007007e805700c0ff07000300370027
:10064000330007007e805700cfff0700dfb697001a
:100650000d00e0000c0035006fb29700ffb297006c
:100660000fbb97009fbb97001000200001002000e7
:100670006011b800000272008182720002037300f0
:10068000838373001b0007000c06e80001042000b0
:10069000810f5600e0ff3a000d00e00004003d002d
:1006a0000802be000a03be007e805700a3ff0700b9
:1006b0005fa897000000e00005003a001fb2970015
:1006c000afb297003fb39700cfb397000900070080
:1006d0006fb09700ffb097000fb997009fb99700d0
:1006e0004f06be004f05be004f04be000080fa005a
:1006f000000006000100070000000600a4b79f00ec
:10070000b5b79f00c6b79f00d7b79f00000006008f
:100710004f09de0082817100b3b79f004f01de00f8
:100720008180400082807000a1b79f008fb0970049
:100730004f09de00000040000200700090b79f00eb
:100740007fa897004f01de0081804000828070000a
:1007500081b79f000d0007004f3ade000000400007
:1007600004007000f0af9f00080007000402420080
:1007700085824a0006034b0087834b00dfff07009a
:100780000802be000a03be00000006002fb2970058
:10079000bfb297004fb39700dfb397000000060089
:1007a000881f780018002000881f780089ff070044
:1007b0008f87e9004f04780000000600801feb00df
:1007c00084ff07008f87e90000000600889fbe00b5
:1007d0008a9fbe00e00f5000e08f5800e00f5900e4
:1007e000e08f59000c003d006044b8006055b8002f
:1007f0000000540081805c0002015d0083815d0087
:10080000180020001500070008003d001800070030
:100810000004eb00050037000004eb000f000700a8
:1008200002003d001200070018002000dcff070056
:100830000800e000060032006022b8006033b80013
:100840000000520081805a0002015b0083815b003e
:100850004f05be004f04be0000000600e00f52002e
:10086000e08f5a00e00f5b00e08f5b0000000600a5
:100870006044b8006055b8000402540085825c00f2
:1008800006035d0087835d0000000600889fbe00b0
:100890008a9fbe008c1f7800e00f5000e08f580048
:1008a000e00f5900e08f59000d003d006044b80092
:1008b0006055b8000000540081805c0002015d00ba
:1008c00083815d001c0020000820e10009a8e100f0
:1008d0000ab0e1000bb8e1000d003d000800370050
:1008e0000006eb00e00f5200e08f5a00e00f5b00c3
:1008f000e08f5b0006003d006044b8006055b80022
:100900000402540085825c0006035d0087835d005d
:10091000aaff07000c00e000060032006022b800c9
:100920006033b8000000520081805a0002015b0071
:1009300083815b004f0678004f05be004f04be0068
:1009400000000600889fbe008a9fbe008c1f7800b2
:100950000006eb00e00f5000e08f5800e00f590058
:10096000e08f590007003d006044b8006055b800b2
:100970000000540081805c0002015d0083815d0005
:100980001c002000e00f5200e08f5a00e00f5b00d7
:10099000e08f5b0007003d006044b8006055b80080
:1009a0000402540085825c0006035d0087835d00bd
:1009b0000c00a2000c0007000c00e0000600320052
:1009c0006022b8006033b8000000520081805a00f5
:1009d00002015b0083815b004f0678004f05be007b
:1009e0004f04be0000000600889fbe008a9fbe0024
:1009f0008c9fbe000404b8000506b80089044600b8
:100a000060854e000606b8000a054600e0854e00e7
:100a10000706b8008b054600040eb800890446009e
:100a20000a854e00e0854d00050eb8000a05460017
:100a30008b854e00060eb8008b0546000416b800e4
:100a40000a0546008b854e000516b8008b0546004a
:100a5000041eb8008b0546000800be000a01be0057
:100a60004f06be004f05be004f04be00000006004a
:020000040000fa
:100a70000000fa00c482a8006000b8004901070025
:100a8000c482a9006000b800460107000080fa0097
:100a9000000006000200fa0040168000004f7800b7
:100aa000f00f200040168800c442a900c462a800cc
:100ab000efff070050168000104798001e80fb00d3
:100ac000401688001e4090000080fa0000000600da
:100ad0000000fa006000b80032010700c4e2a8007c
:100ae0006000b8002f010700c4e2a900030037002e
:100af00040012000010020002a010700e5ff070057
:100b00000080fb00700060000000e000f8ff3a0089
:100b10000080fa00000006000200fa00004f780092
:100b2000c822ef00c462a900c442a9001e80fb00d5
:100b3000e1006000e0032000010070005016880012
:100b4000cbff07000080fa00000006000200fa0058
:100b50000040eb00004f7800130037001e40780083
:100b6000160007000040eb0020000700ca22ef003b
:100b7000c462a900c442a8000040eb0010479800de
:100b800004003700baff07001e4090000040e80054
:100b9000104798009e409000f0c3b30080cf5000f3
:100ba000f8ff36001e4fe8001e407800e74f500067
:100bb000eaff36000080fa00000006000200fa009a
:100bc000004f780017000700c442a900c462a900c2
:100bd00080cbb3001e4070000080fb0050168800e0
:100be000a3ff07000080fa00000006000200fa00e0
:100bf000004f78000b000700c442a900c462a9009e
:100c00009e80fb00f0032000808060000004200034
:100c1000010070005016880095ff07000080fa0060
:100c2000000006000000fa00020037006000b80073
:100c3000dc00070097ff07000004e000fbff350021
:100c40000080fa00000006000200fa00004f780061
:100c5000f4ff0700c442a800c462a900c822ef0044
:100c60001e80fb005016880081ff07000080fa00fc
:100c7000000006000200fa00004f78001e80fb0012
:100c800061006000004078000004e00002003200d3
:100c9000c402a90001003700c402a8001e80fb00a6
:100ca000620060000000e00002003200c422a900df
:100cb00001003700c422a8000080fa0000000600ee
:100cc0000200fa00f00f200040168800c462a8005d
:100cd000c442a80066ff070050168000004f78004d
:100ce000c822ef001e4078000080fa0000000600d5
:100cf0000400fa002047980031479800c9ff070018
:100d00002e4090008080fb000004200000806000e6
:100d10000000e0000300320020c0b300d5ff070050
:100d20000200370010c0b300d2ff07003e40900021
:100d30000080fb004300de00004078009fff0700ba
:100d40002e409000f043b200a8ff0700dcff070030
:100d5000004f7800daff0700004f78002e40900027
:100d6000f043b200a1ff07003e4090000080fb006e
:100d700067006000110020000008dd00804078005e
:100d80001e40780000c07000afff07000080fa002e
:100d9000000006000400fa00204798002e40900052
:100da0000000fb0001fe2f00010f40001e00780034
:100db0006300b90000007800000f780000002800f0
:100dc0001e004000104078009fff07001e00e80052
:100dd00001002800614078009bff07001e80e800aa
:100de000010028006140780097ff07000040eb00f9
:100df00095ff07000080fa00000006000400fa00da
:100e0000100798000040eb00004f78000600370004
:100e10001e00fb009e009000008040001040780003
:100e20001e4fe800dbff07001e00fb009e00900045
:100e300000804000104078000004e000f4ff3a0019
:100e40000080fa00000006000400fa001007980075
:100e50000040eb00004f7800060037001e00fb004a
:100e60009e00900000804000104078001e4fe80077
:100e7000c8ff07001e00fb009e009000008040009d
:100e8000104078000004e000f4ff3a000080fa000f
:100e9000000006000200fa00000f78001e00780033
:100ea000cf80de006109b90004902000d503200046
:100eb0006033b800a3fe070004242400f5002000de
:100ec0006033b80036fe07000000be0035000700a2
:100ed0000080fa00000006000200fa000000220074
:100ee00080118800c022ef00c822ef00000000003f
:100ef00000000000000000000000000000000000f2
:100f0000c402a900c422a800c442a900c462a80067
:100f1000c482a800c4e2a800500520006016880022
:100f20000000eb00000f7800070037000000000011
:100f300000000000000000000000000000000000b1
:100f4000000000001e0fe8001e007800e10f4000c6
:100f5000f6ff3a00c402a800c422a900c442a800b7
:100f6000c462a900c482a900c4e2a900a00a2000aa
:100f7000601688000000eb00000f780005003700c5
:100f80000000000000000000000000000000000061
:100f90001e0fe8001e007800e10f4000f8ff3a0045
:040fa000d2ff370045
:020000040000fa
:100fa400f03fb1000180b10006003500ee030900f6
:100fb40000000000403fb1000180b100fbff3d0094
:100fc4001000b000203fb00002003500008009008e
:080fd40000000000000006000f
:020000040000fa
:040fdc000000000011
:020000040000fa
:0200000401f009
:04000000ffff0000fe
:020000040000fa
:0200000401f009
:04000800ffff0000f6
:020000040000fa
:0200000401f009
:04000c0058ff000099
:020000040000fa
:0200000401f009
:04001000bbff000032
:020000040000fa
:0200000401f009
:04001400ffff0000ea
:020000040000fa
:0200000401f009
:04001800f7ff0000ee
:020000040000fa
:0200000401f009
:04001c00feff0000e3
:00000001FF
