:020000040000fa
:080000000002040000000000f2
:020000040000fa
:10000800ae020000ae020000ae020000ae02000028
:10001800ae020000ae020000ae020000ae02000018
:10002800ae020000ae020000ae020000ae02000008
:10003800ae020000ae020000ae020000ae020000f8
:020000040000fa
:020000040000fa
:100400000f8120000eff20000e0188000000000078
:10041000000020000000e000020032000001200087
:10042000200288000c000700c0902200010020007c
:1004300011000700000020000000e0000200320070
:100440000000020000000000b828020000000000c8
:100450000040da000000fe004440a90060a721002f
:100460000000e0000300320000002000a00188002e
:100470004440a80000000600910188008000780038
:100480000000eb0015003700e280400032a0b4000d
:100490009101ba00e280400032a0b4009102ba009b
:1004a000e280400032a0b4000002eb00472bde00e7
:1004b000f507b200602ce10004003a000059eb009f
:1004c0008301e900fdff3e00040037006128e100e0
:1004d000010032000082eb00040007001101ba00a5
:1004e0000200e000e8ff3a00000006003159ba00bf
:1004f0008301e9000c0032002159ba008301e900b0
:10050000080032000400e00003003a00e2804000ee
:1005100032a0b400f5ff370011d9ba008301e90019
:10052000faff3a008100e800e180400032a0b40008
:1005300000000600000000000000000000000000b5
:1005400000000000000000000000000000000000ab
:100550000000000000000000000000000040da0081
:100560000000fe0003f0a200889fbe008a9fbe002c
:100570008c1f7800b2000700b90033006450e1001e
:100580004f0032006420e1005200320003826c0010
:1005900007003b000905d0000306d000820f54007d
:1005a0000c065d000200390002003200890178006b
:1005b000030678008582550004003d000003fd001d
:1005c0008103fd008502ea008b854200840f7200e2
:1005d00002003b0060001000e08018006011b800cd
:1005e0000005eb007a28e1000a00390006007800d7
:1005f000c75ddd00f707b200878075002d0037006a
:10060000828171000a017800610560008180d1005b
:100610000080d3008502e900f9ff3b00060440009a
:100620008784480002003b0060041400e0841c0042
:100630000988a300070032008a817100828171005d
:10064000610164008904d1000884d3008b05e800af
:10065000170037000978a30013003a000b00e000f0
:10066000130034008b05e9000804440089844c0021
:100670000a4474000978a3000d003a000b00e00062
:10068000070034008b05e9000804440089844c000d
:1006900001003a000b0020000978a300f7ff3200a8
:1006a0000001eb0002003700828171000a0178002e
:1006b000280007000cf0a70001f0a000710037002f
:1006c0006420e10002003a00838f6c007100330067
:1006d0000801be000200be006a0037000001be0033
:1006e000420007000470a70003f0a10003f8a30074
:1006f00013003a006509b10010003200090035000e
:100700006928e10002003500010028000000050012
:1007100000004000818048008502e900fcff3a00ab
:1007200000000600f88f4200050035008100d1006e
:100730000080d3008502e800fcff3a0000000600bc
:100740008000eb00000005004f89de008201780088
:100750008700370081002000618055000b003d00bc
:100760000b00200061fe2f000100e1001d0034009d
:1007700082817100610164008904d1000884d30082
:100780000000e800faff3a007100200061006400f8
:1007900003007000020060000900320061044400a0
:1007a000e0844c000988a500050032008b05e800b4
:1007b0006808e10002003a008904d1000884d300ef
:1007c000f20f20000258e10005003d00c75ddd008a
:1007d000f907b20089807500080078000000060063
:1007e0000bf827008b00780000000500c70ade0028
:1007f000f107b200f50fb20008003200e1cf42006d
:10080000020032000170a00024000500810f70007a
:10081000010032000408050044000500810f70004b
:1008200002003a00140005008502e90000004000c3
:1008300081c04800fcff3b000170a00024000500bf
:100840000004be00e9ff07000003be000405be006f
:100850000200be00e5ff0700844f7500000006009f
:100860000200be006450e100050036006420e10093
:10087000020036000968a30001003a000800be002b
:100880000160a0004f0678004f05be004f04be0077
:1008900000000600f0ff2f00f1ff2700f9ff3700ee
:1008a000889fbe008a9fbe008c1f7800e4ff07006f
:1008b000ebff330003866c006450e100240032003b
:1008c0006420e100270032006150e1002200320084
:1008d0006120e100210032008b854200eb07b1006e
:1008e0000134b800003ab8000804420089844a0084
:1008f000013ab8000030b8008880400009014a0081
:1009000004003300000040008180480002014900db
:100910008b05e900c909dd00830170000100320088
:1009200013002000c814de004814dd004709de0073
:100930001200b200c808de000884700085ff0700be
:1009400001f0a1000cf0a70001f0a000cdff3700de
:100950006120e100cfff32000801be000200be00ae
:10096000f7ff37006150e100fcff3a00c9ff370094
:10097000881f7800030478000300e00007003d00b2
:1009800060001000e080180060011900e08119008b
:1009900002003b0001f02d000300370004000700b7
:1009a00008f0a70001f0a0004f0478000000060046
:1009b000889fbe008a9fbe00008270000402710002
:1009c00004827100260032000004be000200be0056
:1009d0006011b8006b092000950220000182cf0051
:1009e0000a0039000541b1000082cf00070039003c
:1009f0000541b1000982cf00040039000541b10072
:100a00000882cf00010039000541b10005425200c3
:100a1000120032000a003b00828171006101640013
:100a20008100d1000080d3008984d3000884d300e2
:100a30008b05e8000442e800f7ff3a0007003700a2
:100a40000804440089844c0000004800818048006c
:100a50008b05e9000442e900f9ff3a003dff070079
:0c0a60004f05be004f04be000000060061
:020000040000fa
:100a6c00000000000000000000000000000000007a
:100a7c00000000000000000000000000000000006a
:100a8c00000000000000000000000000000000005a
:100a9c000000000000000000c0fc00000408000082
:100aac000810000010200000204000004000000052
:100abc0080800000800000000000000000000000aa
:100acc0000000000000000008080000000400000da
:100adc00400000002010000010080000040400007a
:100aec000c18000010200000204000004000000006
:100afc00808000008000000000000000000000006a
:100b0c0000000000000000008080000000000000d9
:100b1c00404000002020000010100000182c0000a5
:100b2c00fcfc000080000000000000000000000041
:100b3c0000000000000000000000000000000000a9
:100b4c000000000000000000000000000000000099
:100b5c000000000000000000000000000000000089
:100b6c000000000000000000000000000000000079
:100b7c000000000000000000000000000000000069
:100b8c000000000000000000000000000000000059
:100b9c000000000000000000ffff0000000000004b
:100bac000000000000000000000000000000000039
:100bbc0000e00000e0e00000e0e10000e1e1000006
:100bcc00e1e0000000600000e0e00000e000000058
:100bdc0000e00000e0e00000e0e000000080000029
:100bec00e0e00000e060000000e00000e0e0000059
:100bfc00e000000020e00000e0e10000c101000086
:100c0c00e1e00000e0e00000000000000000000057
:100c1c0000000000000000000000000000000000c8
:100c2c00ffff0000ff0000000000000000000000bb
:100c3c0000000000000000000000000000000000a8
:100c4c000000000000000000000000000000000098
:100c5c000000000000000000000000000000000088
:100c6c000000000000000000000000000000000078
:100c7c000000000000000000000000000000000068
:100c8c000000000000000000000000000000000058
:100c9c0000000000000000000fff0000fe800000bc
:100cac000000000000000000000000000000000038
:100cbc000000000000000000ffff0000ffff00002c
:100ccc0000000000000000007fff0000ffff00009c
:100cdc00f0ff0000ff1f0000ffff0000c0ff00003e
:100cec00ffff00007f00000000ff0000ffff00007e
:100cfc00ff00000000ff0000ffff00007ffc000071
:100d0c00ffff0000ffff00000000000000000000db
:100d1c0000000000000000000000000000c0000007
:100d2c00ffff0000010000000000000000000000b8
:100d3c0000000000000000000000000000000000a7
:100d4c000000000000000000000000000000000097
:100d5c000000000000000000000000000000000087
:100d6c000000000000000000000000000000000077
:100d7c000000000000000000000000000000000067
:100d8c000000000000000000000000000000000057
:100d9c000000000000000000000100001fff000028
:100dac00f8c000000000000000000000000000007f
:100dbc0000000000000000001f1f00001f1f0000ab
:100dcc000000000000000000001f00001f1f0000ba
:100ddc001f1f000003000000071f00001f1f000062
:100dec001f0f000000000000001f00000f0f00008c
:100dfc001f000000001f00001f0f00000003000078
:100e0c001f0f00001f0f000000000000000000007a
:100e1c00000000000000000000c00000f87f00008f
:100e2c000f000000000000000000000000000000a7
:100e3c0000000000000000000000000000000000a6
:100e4c000000000000000000000000000000000096
:100e5c000000000000000000000000000000000086
:100e6c000000000000000000000000000000000076
:100e7c000000000000000000000000000000000066
:100e8c000000000000000000000000000000000056
:100e9c000000000000000000000000000000000046
:100eac00071f0000fcf00000e00000000000000044
:100ebc00000000000000000000000000ffff000028
:100ecc00ffff0000fffe0000c0fe0000ffff00005f
:100edc00ffff0000ff00000000f00000ffff00001b
:100eec007f3f0000ffff0000f00000000003000047
:100efc003fff0000fff80000fcff0000ff030000b4
:100f0c0000000000000000000000000000000000d5
:100f1c0000000000c0f000007e1f00000300000075
:100f2c0000000000000000000000000000000000b5
:100f3c0000000000000000000000000000000000a5
:100f4c000000000000000000000000000000000095
:100f5c000000000000000000000000000000000085
:100f6c000000000000000000000000000000000075
:100f7c000000000000000000000000000000000065
:100f8c000000000000000000000000000000000055
:100f9c000000000000000000000000000000000045
:100fac000000000000030000071f00007cf400009c
:100fbc00e08000000000000000000000ffff0000c7
:100fcc00ff7f000003ff0000ffff0000037f000015
:100fdc00ffff0000ff000000f8ff0000ffff000013
:100fec001c1c0000ffff0000fff8000000e00000e8
:100ffc00ffff0000ff0700000fff0000fff80000dc
:10100c00c00000000000000000800000e0f00000c4
:10101c003c0f000007010000000000000000000071
:10102c0000000000000000000000000000000000b4
:10103c0000000000000000000000000000000000a4
:10104c000000000000000000000000000000000094
:10105c000000000000000000000000000000000084
:10106c000000000000000000000000000000000074
:10107c000000000000000000000000000000000064
:10108c000000000000000000000000000000000054
:10109c000000000000000000000000000000000044
:1010ac000000000000000000000000000000000034
:1010bc00030700000e3c000078f00000c080000028
:1010cc000000000000000000000000000000000014
:1010dc0000000000000000001010000010100000c4
:1010ec0000000000000000000010000010100000c4
:1010fc000000000000000000000000000080000064
:10110c00c0f00000781c00000f0700000100000078
:10111c0000000000000000000000000000000000c3
:10112c0000000000000000000000000000000000b3
:10113c0000000000000000000000000000000000a3
:10114c000000000000000000000000000000000093
:10115c000000000000000000000000000000000083
:10116c000000000000000000000000000000000073
:10117c000000000000000000000000000000000063
:10118c000000000000000000000000000000000053
:10119c000000000000000000000000000000000043
:1011ac000000000000000000000000000000000033
:1011bc00000000000000000000000000010300001f
:1011cc00070e00001c3c00007c6c00004606000072
:1011dc00163a0000121300007b130000137b000072
:1011ec0013130000730300003232000006060000e7
:1011fc00466c00007c3800001c0e00000703000049
:10120c0001000000000000000000000000000000d1
:10121c0000000000000000000000000000000000c2
:10122c0000000000000000000000000000000000b2
:10123c0000000000000000000000000000000000a2
:10124c000000000000000000000000000000000092
:10125c000000000000000000000000000000000082
:10126c00fffe0000fefe0000fffe0000f8ff000085
:10127c00bfff0000ffff0000ffff0000ffff0000aa
:10128c00ffff0000ffff0000fff80000ffff000061
:10129c00ffff0000ffff0000ffff0000ffff00004a
:1012ac00ffff0000e880000098000000181000000c
:1012bc00d0e000007c3c00001e3c0000d0f300009d
:1012cc00effb0000f8fd0000ffff0000ffff000037
:1012dc00ffff0000fbf80000f0f00000f0e0000061
:1012ec00e0f60000e4f60000f8f00000f8e400007e
:1012fc00eae0000000000000000000000000000018
:10130c0000000000000000000000000000000000d1
:10131c0000000000000000000000000000000000c1
:10132c000000000057ff0000ffff0000ffff00005f
:10133c00ffff0000ffff0000ffff0000ffff0000a9
:10134c00ffff0000ffff0000ffff00007f3f0000d9
:10135c000f7300007ffe0000fc0000000000000086
:10136c00ffff0000ffff0000ffff0000fdfe00007c
:10137c00ffff0000ffff0000ffff0000ffff000069
:10138c00ffff0000ffff0000ffff0000ffff000059
:10139c00ffff0000ffff0000ffff0000ffff000049
:1013ac00ffff0000fffe0000658000008080000051
:1013bc00008000007cdc0000ecde00001fff000061
:1013cc007fff0000ffff0000fdff00007f3f0000db
:1013dc000f030000030300000100000001010000e6
:1013ec000101000001010000030300000f1f0000b9
:1013fc007fff0000fffe0000fefe0000f0f000008a
:10140c00f8f80000e0f00000f08000000080000020
:10141c000080000000800000c0c00000c8f8000080
:10142c00fcfe0000ffff0000ffff0000ffff0000bc
:10143c00ffff0000ffff0000ffff0000ffff0000a8
:10144c00ffff0000ffff0000ffff0000fefe00009a
:10145c00ffff0000ffff0000ff0000000000000085
:10146c00ffff0000ffff0000ffff0000ffff000078
:10147c00ffff0000ffff0000ffff0000ffff000068
:10148c00ffff0000ffff0000ffff0000ffff000058
:10149c00ffff0000ffff0000ffff0000ffff000048
:1014ac00ffff0000ffff0000ffff0000ffff000038
:1014bc00ffff0000fefe0000feff00007fff0000ab
:1014cc00ffff0000ffff0000ff80000080c0000055
:1014dc00c0c00000c08000008000000000000000c0
:1014ec0000000000000000000000000080c00000b0
:1014fc00c0c10000fcff0000ffff0000ffff000068
:10150c00fbff00003f2f00002707000007df000053
:10151c00ffff0000ffff0000ffff0000ffff0000c7
:10152c00ffff0000ffff0000ffff0000ffff0000b7
:10153c00ffff0000ffff0000ffff0000ffff0000a7
:10154c00ffff0000ffff0000ffff0000ffff000097
:10155c00ffff0000ffff0000ff0000000000000084
:10156c00ffff0000ffff0000ffff0000ffff000077
:10157c00ffff0000ffff0000ffef00000f0700005f
:10158c0083070000030000000000000000000000c2
:10159c000103000003030000070f00000f0f000001
:1015ac001f1f00001f3f00007f7f00007fff000017
:1015bc00ffff0000ffff0000ffff0000fffd000029
:1015cc00ffef0000077f0000ff8200000003000017
:1015dc0001000000010000000000000000020000fb
:1015ec0000000000547e0000b8b0000003030000af
:1015fc00030500000f1f00004fff0000ffff00005d
:10160c00ffc70000e2ea0000ade30000c1f70000f4
:10161c00e7ef00007feb0000f7ef0000ffbf0000da
:10162c00bf0f00000f0f00000f1f00001f1f000056
:10163c009fdf0000ffff0000ffff0000ffff000026
:10164c00ffff0000ffff0000ffff0000ffff000096
:10165c00ffff0000ffff0000ff0000000000000083
:10166c00ffff0000ffff0000ffff0000ffff000076
:10167c007fff0000ffff0000ffff0000feff0000e7
:10168c00ff7f0000060000000000000000000000ca
:10169c00000000000000000000000000000000003e
:1016ac00000000000000000000000000000000002e
:1016bc00157f00007fff0000ffff0000ffff000010
:1016cc00ff7f0000fcff0000ffdf00008e00000029
:1016dc00000000000026000002c00000c5820000cf
:1016ec00181800000cc70000dfff0000fef6000019
:1016fc0038080000000c00009fbf00003f1f0000d6
:10170c000f0f00000f0f0000030300000303000085
:10171c00070f00000f1f00001f1f00001f1f0000fd
:10172c001f0f00000f0f00000f0f00003f3f0000c5
:10173c007fff0000ffff0000ffff0000ffff000025
:10174c00ffff0000ffff0000ffff0000ffff000095
:10175c00ffff0000ffff00007f0000000000000002
:10176c003f1f00001fff0000ffff0000fff90000fb
:10177c00f0fc0000fcff0000ffff0000ffff00007a
:10178c00ff0000000000000000000000000000004e
:10179c00000000000000000000000000000000003d
:1017ac00000000000000000000000000000000002d
:1017bc00000000008181000081c10000e0e1000018
:1017cc00e0f80000f8fe0000feff00001f7e0000a5
:1017dc00f8f80000e0c00000c0800000808100002c
:1017ec008081000080c00000c1f10000e0e000003a
:1017fc00fcfc00001f3f0000ffff0000ffff00008b
:10180c00ffff0000fefe0000fefe0000fefc0000dc
:10181c00fcf80000f8f80000f8f80000f8f80000f8
:10182c00f8f80000f8e00000e0e00000e0e0000064
:10183c00c081000081810000010100000101000055
:10184c000101000001010000010100000100000085
:10185c000000000080800000c000000000000000bc
:10186c000000000000cf0000ffff0000ff3f000061
:10187c00ffff0000ffff0000ffff0000ffff000064
:10188c00ffe00000c0c00000c0800000008000002d
:10189c0080c00000c0c00000e0f00000f0f00000cc
:1018ac00f8fc0000fcfc0000fefe0000feff000047
:1018bc00feff0000ffff0000ffff0000ffff000025
:1018cc00ffff0000ffff0000ffff0000f80000001a
:1018dc0000030000030700000f1f00001f7f000023
:1018ec007fff0000ffff0000bf1f00000f0f000074
:1018fc000100000080e00000ffff0000ffff00007f
:10190c00ffff0000ffff0000ffff0000ffff0000d3
:10191c00ffff0000ffff0000ffff0000ffff0000c3
:10192c00ffff0000ffff0000ffff0000ffff0000b3
:10193c00ffff0000ffff0000ffff0000fcf80000ad
:10194c00000000000000000000000000000000008b
:10195c00000000000000000000000000000000007b
:10196c0000000000ffff0000ffff0000fffd000073
:10197c00ffff0000ffff0000ffff0000ffff000063
:10198c00ffff0000ffff0000ffff0000ffff000053
:10199c00ffff0000ffff0000ffff0000ffff000043
:1019ac00ffff0000ffff0000ffff0000ffff000033
:1019bc00ffff0000ffff0000ffff0000ffff000023
:1019cc00ffff0000ffff0000ffff0000fffc000016
:1019dc00f80000000000000000000000001e0000e5
:1019ec007eff0000ffff0000ffff00000e0600005e
:1019fc0000000000ffff0000ffff0000ffff0000e1
:101a0c00ffff0000ffff0000ffff0000ffff0000d2
:101a1c00ffff0000ffff0000ffff0000ffff0000c2
:101a2c00ffff0000ffff0000ffff0000ffff0000b2
:101a3c00ffff0000ffff0000ffff0000ffff0000a2
:101a4c00fcf8000000000000000000000000000096
:101a5c00000000000000000000000000000000007a
:101a6c00000000000000000000000000000000006a
:101a7c00000000000000000000fc0000fefe000062
:101a8c00fefe0000f80000000000000000800000d6
:101a9c00e0f80000fcfc0000fefe00007e7e000072
:101aac007e7e0000fefe0000fc7c00003800000082
:101abc00000000000000000000f80000fcfe000028
:101acc00fefe0000fefe00007e7e00007e7e00001a
:101adc007e7e00007e7e00007e7e00007e7e00000a
:101aec007c0000000000000000fc0000fefe000076
:101afc00fefe0000fcf80000e0c0000080000000ca
:101b0c0000000000000000000000000000000000c9
:101b1c00fefe0000fefe0000fe00000000000000c3
:101b2c0000000000000000000000000000000000a9
:101b3c000000000000000000000000000000000099
:101b4c000000000000000000000000000000000089
:101b5c000000000000000000000000000000000079
:101b6c000000000000000000000000000000000069
:101b7c00000000000000000000ff0000ffff00005c
:101b8c00ffff0000ff00000000000000000f00003d
:101b9c003fff0000ffff0000fffc0000f8f000001a
:101bac00f0f00000f0e00000e0c00000c080000099
:101bbc00000000000000000000ff0000ffff00001c
:101bcc00ffff0000ffff0000e0e00000e0e000008d
:101bdc00e0e00000e0e00000e0e00000e0c0000019
:101bec00000000000000000000ff0000ffff0000ec
:101bfc00ffff0000ff3f00007fff0000ffff000021
:101c0c00fcf80000e0c000008000000000000000b4
:101c1c00ffff0000ffff0000ff00000000000000bd
:101c2c0000000000000000000000000000000000a8
:101c3c000000000000000000000000000000000098
:101c4c000000000000000000000000000000000088
:101c5c000000000000000000000000000000000078
:101c6c000000000000000000000000000000000068
:101c7c00000000000000000000ff0000ffff00005b
:101c8c00ffff0000ff00000000000000000000004b
:101c9c00000000008081000001030000030300002d
:101cac00030700000f9f0000ffff0000ffff000074
:101cbc00fef800000000000000ff0000ffff000025
:101ccc00ffff0000ffff00000707000007070000f0
:101cdc0007070000070700000707000003010000ca
:101cec00000000000000000000ff0000ffff0000eb
:101cfc00ffff0000ff0000000000000003070000d1
:101d0c000f1f00007fff0000ffff0000fcff000022
:101d1c00ffff0000ffff0000ff00000000000000bc
:101d2c0000000000000000000000000000000000a7
:101d3c000000000000000000000000000000000097
:101d4c000000000000000000000000000000000087
:101d5c000000000000000000000000000000000077
:101d6c000000000000000000000000000000000067
:101d7c000000000000000000007f00007f7f0000da
:101d8c007f7f00003f00000000000000000e0000fc
:101d9c001f3f00007f7f00007ffe0000fcfc000066
:101dac00fcfe0000fe7f00007f3f00001f0f0000c4
:101dbc000701000000000000003f00007f7f0000d2
:101dcc007f7f00007f7f00007c7c00007c7c00001b
:101ddc007c7c00007c7c00007c7c00007c7c000017
:101dec007c00000000000000003f00007f7f00002e
:101dfc007f7f00007f00000000000000000000005a
:101e0c000000000000000000010700000f1f000090
:101e1c003f7f00007f7f00007f000000000000007b
:101e2c0000000000000000000000000000000000a6
:101e3c000000000000000000000000000000000096
:101e4c000000000000000000000000000000000086
:101e5c000000000000000000000000000000000076
:101e6c000000000000000000000000000000000066
:101e7c0000000000000000000000000000c0000096
:101e8c00e0e0000000000000000000000000000086
:101e9c000000000000000000000000000000000036
:101eac00000000000000000000800000c0000000e6
:101ebc000000000000000000000000000000000016
:101ecc000000000000000000000000000000000006
:101edc0000000000000000000000000000000000f6
:101eec0000000000000000000000000000000000e6
:101efc0000000000000000000000000000000000d6
:101f0c0000000000000000000000000000000000c5
:101f1c0000000000000000000000000000000000b5
:101f2c0000000000000000000000000000000000a5
:101f3c000000000000000000000000000000000095
:101f4c000000000000000000000000000000000085
:101f5c000000000000000000000000000000000075
:101f6c000000000000000000000000000000000065
:101f7c000000000000000000003c0000feff00001c
:101f8c00ffff0000fe1e000000380000feff0000f6
:101f9c00c7c70000c6400000007c0000feef000038
:101fac00c7ef0000fe7c0000007f0000ff00000077
:101fbc00007c0000feff0000ffff0000fe1e000082
:101fcc000000000000000000000000000000000005
:101fdc0000000000000000000000000000000000f5
:101fec0000000000000000000000000000000000e5
:101ffc0000000000000000000000000000000000d5
:10200c0000000000000000000000000000000000c4
:10201c0000000000000000000000000000000000b4
:10202c0000000000000000000000000000000000a4
:10203c000000000000000000000000000000000094
:10204c000000000000000000000000000000000084
:10205c000000000000000000000000000000000074
:10206c000000000000000000000000000000000064
:10207c00000000000000000000800000c0e1000033
:10208c00e1f10000f8f80000000000003819000031
:10209c0001d90000f9d0000000800000c0e1000070
:1020ac00e1e10000c080000000000000c1e0000081
:1020bc00e0e00000e0e1000001010000c1c0000010
:1020cc00f8fc0000e0c0000080000000c0c0000070
:1020dc00e0e00000e0c0000080000000d8f8000044
:1020ec00c0000000c0c00000e0e00000e0c0000044
:1020fc0080000000c0e00000c000000000c0000034
:10210c00e000000000c00000c0e0000060c0000063
:10211c00c0e00000e0c00000000000000000000073
:10212c0000000000000000000000000000000000a3
:10213c000000000000000000000000000000000093
:10214c000000000000000000000000000000000083
:10215c000000000000000000000000000000000073
:10216c000000000000000000000000000000000063
:10217c000000000000000000000700001f1c000011
:10218c00181f00001f1f00000000000000000000ce
:10219c00001f00001f1f0000001f00001f00000098
:1021ac00000700001f1f0000001800001f1f000088
:1021bc001f1f00003bf90000f00700000f1f00007c
:1021cc001f1f00001f0f0000010f00001f1f000049
:1021dc00000000000f1f00001f0000001f1f000068
:1021ec000f0000000f1f00001f1f00001f1f00002a
:1021fc0001000000071f00001f1800001c1f00003a
:10220c000f000000001f00001f0000000000000075
:10221c001f1f00001f1f00000e0000000000000028
:10222c0000000000000000000000000000000000a2
:10223c000000000000000000000000000000000092
:10224c000000000000000000000000000000000082
:10225c000000000000000000000000000000000072
:10226c000000000000000000000000000000000062
:10227c00000000000000000000e00000ff1f000054
:10228c000000000000000000000000000000000042
:10229c00000000000000000000f7000080000000bb
:1022ac000000000000000000000000000000000022
:1022bc000000000080c00000e0700000381c00002e
:1022cc000e060000070300000000000000000000e4
:1022dc000000000000000000008000008080000072
:1022ec0080800000000000000000000000000000e2
:1022fc0000000000000000000000000000000000d2
:10230c0000000000000000000000000000000000c1
:10231c0000000000000000000000000000000000b1
:10232c0000000000000000000000000000000000a1
:10233c000000000000000000000000000000000091
:10234c000000000000000000000000000000000081
:10235c000000000000000000000000000000000071
:10236c000000000000000000000000000000000061
:10237c000000000000000000000100000f3e000003
:10238c0070e00000c08000000000000000000000b1
:10239c000000000000000000000000000000000031
:1023ac0018600000c00000000000000000000000e9
:1023bc00003e0000ffc30000000000000000000011
:1023cc000000000000000000000000000000000001
:1023dc0000000000060600001ff0000000000000d6
:1023ec00e03f0000100000000000000000000000b2
:1023fc0000000000000000000000000000000000d1
:10240c0000000000000000000000000000000000c0
:10241c0000000000000000000000000000000000b0
:10242c0000000000000000000000000000000000a0
:10243c000000000000000000000000000000000090
:10244c000000000000000000000000000000000080
:10245c000000000000000000000000000000000070
:10246c000000000000000000000000000000000060
:10247c000000000000000000000000000000000050
:10248c000000000001030000070e00000c18000003
:10249c003870000060e00000c08000000000000008
:1024ac000000000000000000083800006040000040
:1024bc0000000000010700000f1c000038e00000c5
:1024cc00c0800000000000000000000000000000c0
:1024dc0000000000000000000007000004040000e1
:1024ec0007000000000000000000000000000000d9
:1024fc0000000000000000000000000000000000d0
:10250c0000000000000000000000000000000000bf
:10251c0000000000000000000000000000000000af
:10252c000000000000700000c0000000000000006f
:10253c00000000000000000000000000000000008f
:10254c00000000000000000000000000000000007f
:10255c00000000000000000000000000000000006f
:10256c0000000000000000000000000000800000df
:10257c00e030000030400000c0800000808000008f
:10258c0080000000000000000000000000000000bf
:10259c000000000000000000010100000307000023
:1025ac00060c00001c18000030700000e0c0000099
:1025bc008000000000180000102000000000000047
:1025cc0001030000070e00001c38000070e0000042
:1025dc00800000000000000000000000000000006f
:1025ec00000000000000000000000000008000005f
:1025fc0040400000202000001018000070c00000b7
:10260c0000000000000000000000000000000000be
:10261c0000000000000000000000000080c000006e
:10262c00301800000c06000007fc000080000000c1
:10263c00000000000000000000000000000000008e
:10264c00000000000000000000000000000000007e
:10265c00000000000000000000000000000000006e
:10266c000000000000000000000000003ee300003d
:10267c000000000000880000800000001000000036
:10268c0087f80000000000000000000000000000bf
:10269c00000000000000000000000000000000002e
:1026ac00000000000000000000000000000100001d
:1026bc00030f0000bcf80000400000000000000008
:1026cc000000000018700000400000000000000036
:1026dc00030700000e3c0000f0e00000800000004a
:1026ec00000000000000000080c00000403f00001f
:1026fc00000000000000000021000000004100006c
:10270c0007040000fc0000000000000000000000b6
:10271c000000000000000000fe0b00000908000093
:10272c00181000001010000010100000171c000002
:10273c00f800000000000000000000000000000095
:10274c00000000000000000000000000000000007d
:10275c00000000000000000000000000000000006d
:10276c000000000000000000000000000007000056
:10277c000c18000030e1000000e00000f80e000032
:10278c00030000000000000000000000000000003a
:10279c00000000000000000000000000000000002d
:1027ac0000000000000000000080000080e000003d
:1027bc00703c00001f07000000000000000000003b
:1027cc000000000000700000080000000000000085
:1027dc00000000000000000000030000fffe0000ed
:1027ec00000000000000000001030000063c000097
:1027fc0060c00000e001000000800000f01000004c
:10280c00080c0000030000000000000000000000a5
:10281c000000000000000000ff00000000c00000ed
:10282c0040c000000000000000000000000000009c
:10283c00ff8000000000000000000000000000000d
:10284c00000000000000000000000000000000007c
:10285c00000000000000000000000000000000006c
:10286c00000000000000000000000000000000005c
:10287c0000000000007f0000407f0000010000000d
:10288c00000000000000000000000000000000003c
:10289c000000000000800000c0c00000607000005c
:1028ac00301800001c0e000007030000010000009f
:1028bc00000000000000000000c0000070100000cc
:1028cc0010000000000000000000000000000000ec
:1028dc0000000000c0e00000783e00000f01000086
:1028ec0000000000000000000000000000000000dc
:1028fc0000ff000087980000e0ff000000000000cf
:10290c0000000000000000000000000000000000bb
:10291c0000000000000000003f200000203f0000ed
:10292c00202f000038200000202000002020000074
:10293c00203f00000000000000000000000000002c
:10294c00000000000000000000000000000000007b
:10295c00000000000000000000000000000000006b
:10296c00000000000000000000000000000000005b
:10297c0000000000000000000000000000c000008b
:10298c00c0e0000060300000381800000c0c0000a3
:10299c000607000003010000010000000000000019
:1029ac00000000000000000000000000e038000003
:1029bc000800000000000000000000000000000003
:1029cc000000000000c00000e0700000381c000097
:1029dc000e070000030000000000000000000000d3
:1029ec0000000000000000000000000000000000db
:1029fc0000000000000000000101000000000000c9
:102a0c0000000000000000000000000000000000ba
:102a1c0000000000000000000000000000000000aa
:102a2c00000000000000000000000000000000009a
:102a3c00000000000000000000000000000000008a
:102c6c0000000000e0e00000e0e00000e0e0000018
:102c7c00e0e00000e0e00000e0e00000e0e0000048
:102c8c00e0e00000e0e00000e0e0000000000000f8
:102c9c0000800000e0e00000e0e00000e000000048
:102cac000000000000e00000e0e00000e0e00000b8
:102cbc0000000000e0e00000e0e00000e0000000a8
:102ccc0000000000e0e00000e0e00000e0e00000b8
:102cdc00c000000000000000e0e00000e0e00000a8
:102cec00e000000000000000e0e00000e0e0000078
:102cfc00e0e00000e0e000008000000000000000c8
:102d0c0000e00000e0e00000e0e00000e0e0000097
:102d1c00e0000000000000000000000000e00000e7
:102d2c00e0e00000e0e00000e0e00000e000000077
:102d3c00000000000000000060e00000e0e0000087
:102d4c00e0e000008000000000c00000e0e00000b7
:102d5c00e0e00000e02000000000000000000000a7
:102d6c00000000000303000003030000ffff00004d
:102d7c00ffff0000ffff000003030000030300003f
:102d8c00031f0000ffff0000ffff0000fc0000001d
:102d9c00c0ff0000ffff00003fff0000fffe00002f
:102dac0080000000feff0000ffff00007f0300001a
:102dbc0000000000ffff0000ffff0000ff0000000c
:102dcc0000000000ffff0000ffff0000ff3f0000bd
:102ddc00fffe0000e0000000ffff0000ffff00000e
:102dec00ff00000000000000ffff0000ffff0000dc
:102dfc00ff0f0000ffff0000fff0000000e00000ec
:102e0c00ffff0000ff0f0000ffff0000ffff0000ae
:102e1c00ff0000000000000000f00000ffff0000b9
:102e2c00ffff0000071f0000ffff0000fffe000077
:102e3c00e000000000000000000100000f3f000057
:102e4c00ffff0000fffc0000feff0000ffff000082
:102e5c001f0700000100000000000000000000003f
:102e6c00000000000000000000000000ffff000058
:102e7c00ffff0000ffff000000000000000000004a
:102e8c0000000000037f0000ffff0000fffc0000bb
:102e9c00ffff0000ff030000000f0000ffff000019
:102eac00fffc0000ffff0000ff3f000000000000df
:102ebc0000000000ffff0000ffff0000ff0000000b
:102ecc0000000000ffff0000ffff0000ff000000fb
:102edc00011f0000fffe0000ffff0000ffff0000cd
:102eec00ff00000000000000ffff0000ffff0000db
:102efc00ff000000001f0000ffff0000feff0000ad
:102f0c00ff3f000000000000ffff0000ffff00007b
:102f1c00ff00000000e00000ffff0000ffff0000ca
:102f2c00ff790000787800007fff0000ffff0000b1
:102f3c00fffe0000c000000000c00000f0fc00001c
:102f4c00ffff0000ff1f00003fff0000ffff00001d
:102f5c00fce0000080000000000000000000000009
:102f6c000000000000000000000000000707000047
:102f7c000707000007070000000000000000000029
:102f8c000000000000000000070700000707000019
:102f9c000707000003000000000000000707000006
:102fac0007070000070700000700000000000000f2
:102fbc0000000000070700000707000007000000e2
:102fcc0000000000070700000707000007000000d2
:102fdc0000000000010700000707000007070000c1
:102fec0007000000000000000707000007070000b2
:102ffc0007000000000000000707000007070000a2
:10300c000700000000000000070700000707000091
:10301c000700000006070000070700000707000074
:10302c000000000000000000000000000707000086
:10303c00070700000704000007070000070700004f
:10304c000707000000000000000100000707000057
:10305c000707000007060000000000000000000049
:10306c000000000000000000000000000000000054
:10307c000000000000000000000000000000000044
:10308c000000000000000000000000000000000034
:10309c000000000000000000000000000000000024
:1030ac000000000000000000000000000000000014
:1030bc000000000000000000000000000000000004
:1030cc0000000000000000000000000000000000f4
:1030dc0000000000000000000000000000000000e4
:1030ec0000000000000000000000000000000000d4
:1030fc0000000000000000000000000000000000c4
:10310c0000000000000000000000000000000000b3
:10311c0000000000000000000000000000000000a3
:10312c000000000000000000000000000000000093
:10313c000000000000000000000000000000000083
:10314c000000000000000000000000000000000073
:10315c000000000000000000000000000000000063
:10316c000000000000000000000000000000000053
:10317c000000000000000000000000000000000043
:10318c000000000000000000000000000000000033
:10319c000000000000000000000000000000000023
:1031ac000000000000000000000000000000000013
:1031bc000000000000000000000000000000000003
:1031cc0000000000000000000000000000000000f3
:1031dc0000000000000000000000000000000000e3
:1031ec0000000000000000000000000000000000d3
:1031fc0000000000000000000000000000000000c3
:10320c0000000000000000000000000000000000b2
:10321c0000000000000000000000000000000000a2
:10322c000000000000000000000000000000000092
:10323c000000000000000000000000000000000082
:10324c000000000000000000000000000000000072
:10325c000000000000000000000000000000000062
:10326c007e4200007e000000447e00004000000012
:10327c003a2a00002e0000002a2a00003e0000001e
:10328c000e0800003e0000002e2a00003a0000004c
:10329c003e2a00003a000000020200003e0000003e
:1032ac003e2a00003e0000002e2a00003e000000d6
:1032bc002e2a00003e00000000000000000000006c
:1032cc0000000000006400001804000064180000f6
:1032dc00003c000040400000207c0000000c00007e
:1032ec0030400000300c0000003c0000403000007a
:1032fc00403c0000000000003e1c000008000000e4
:10330c00000400001e1f00001e040000001000003e
:10331c003c7c00003c10000000200000403e0000ff
:10332c00010200000022000014080000142200001a
:10333c0000000000382800003800000000000000e9
:10334c001038000010000000000000000010000009
:10335c0000000000000800007808000000000000d9
:10336c0000000000151500000a000000007f00009e
:10337c007f0900000901000000100000207f000000
:10338c00010100000004000004000000011f000007
:10339c0000000000191500001200000000400000a1
:1033ac0060500000484400000006000009090000bd
:1033bc0006000000000f00000201000001000000e8
:1033cc0000000000011f000001000000004400008c
:1033dc00444a00004a51000000140000741c000014
:1033ec0017140000005100004a4a00004444000039
:1033fc0000000000000400000404000000000000b5
:10340c007c5400005444000000080000082a00000e
:10341c001c080000007c0000007c0000447c0000c4
:10342c0000040000027f00000204000000100000f5
:10343c00207f0000201000000000000000000000b1
:10344c000000000000000000006f00000000000001
:10345c00000000000700000007000000001400003e
:10346c007f1400007f14000000000000070400001f
:10347c001e0000000023000013080000646200001e
:10348c0000360000495600002050000000000000eb
:10349c000007000000000000000000001c220000db
:1034ac004100000000000000412200001c00000050
:1034bc0000140000083e0000081400000008000082
:1034cc00083e00000808000000000000503000001a
:1034dc0000000000000800000808000008080000b8
:1034ec0000000000606000000000000000200000f0
:1034fc001008000004020000003e000051490000ca
:10350c00453e000000000000427f0000400000002b
:10351c0000420000615100004946000000210000fb
:10352c00414500004b31000000180000141200004f
:10353c007f100000002700004545000045390000c1
:10354c00003c00004a490000493000000001000026
:10355c007109000005030000003600004949000015
:10356c00493600000006000049490000291e0000f1
:10357c0000000000363600000000000000000000d3
:10358c005636000000000000000800001422000065
:10359c00410000000014000014140000141400007a
:1035ac00000000004122000014080000000200008e
:1035bc000151000009060000003e0000415d0000c2
:1035cc00494e0000007e000009090000097e000041
:1035dc00007f00004949000049360000003e000011
:1035ec004141000041220000007f000041410000e9
:1035fc00413e0000007f00004949000049410000a5
:10360c00007f00000909000009010000003e0000d5
:10361c0041490000497a0000007f000008080000c2
:10362c00087f000000000000417f00004100000006
:10363c0000200000404100003f010000007f00001e
:10364c000814000022410000007f000040400000f0
:10365c0040400000007f0000020c0000027f0000d0
:10366c00007f000004080000107f0000003e0000f6
:10367c0041410000413e0000007f000009090000ac
:10368c0009060000003e000041510000215e0000d0
:10369c00007f0000091900002946000000460000c8
:1036ac00494900004931000000010000017f000081
:1036bc0001010000003f000040400000403f0000be
:1036cc00000f000030400000300f0000003f0000f1
:1036dc0040300000403f0000006300001408000070
:1036ec0014630000000700000870000008070000c9
:1036fc00006100005149000045430000003c0000ff
:10370c004a490000291e00000002000004080000c5
:10371c001020000000000000417f000000000000ad
:10372c000004000002010000020400000040000040
:10373c00404000004040000000000000000300007a
:10374c0004000000002000005454000054780000d5
:10375c00007f00004844000044380000003800009e
:10376c0044440000442000000038000044440000a1
:10377c00487f00000038000054540000541800002a
:10378c00000800007e09000001020000000c00008f
:10379c0052520000523e0000007f0000080400005e
:1037ac000478000000000000447d00004000000090
:1037bc0000200000404400003d000000000000001c
:1037cc007f1000002844000000000000417f000032
:1037dc0040000000007c0000041800000478000089
:1037ec00007c000008040000047800000038000091
:1037fc004444000044380000007c00001414000015
:10380c00140800000008000014140000187c0000cc
:10381c00007c0000080400000408000000480000c0
:10382c005454000054200000000400003f440000e9
:10383c0040200000003c000040400000207c0000c4
:10384c00001c000020400000201c0000003c000078
:10385c0040300000403c00000044000028100000f4
:10386c0028440000000c000050500000503c0000a8
:10387c0000440000645400004c44000000000000b0
:10388c00083600004141000000000000007f0000ed
:10389c00000000000041000041360000080000005c
:1038ac00000400000204000008040000007f000077
:1038bc006b6b00006b7f0000000000007c4400007c
:1038cc007c00000000000000087c000000000000ec
:1038dc0000000000645400004800000000000000dc
:1038ec004454000028000000000000001c100000e0
:1038fc0078000000000000005c5400002400000070
:10390c00000000007854000074000000000000006b
:10391c00641400000c000000000000007c54000047
:10392c007c000000000000005c5400003c00000023
:10393c0000780000242600002578000000780000a4
:10394c002526000024780000007000002a290000c1
:10395c002a70000000780000252400002578000063
:10396c000020000054560000557800000020000094
:10397c0055560000547800000020000056550000f9
:10398c0056780000002000005554000055780000c7
:10399c00007c00005456000055440000007c0000e0
:1039ac005556000054440000007c000056550000a1
:1039bc0056440000007c00005554000055440000a3
:1039cc000038000054560000551800000038000064
:1039dc0055560000541800000038000056550000e1
:1039ec00561800000038000055540000551800000f
:1039fc0000000000447e00004500000000000000b4
:103a0c00457e00004400000000000000467d0000e0
:103a1c004600000000000000457c0000450000004e
:103a2c0000000000487a0000410000000000000087
:103a3c00497a000040000000000000004a790000b4
:103a4c004200000000000000497800004100000026
:103a5c0000380000444600004538000000380000e3
:103a6c004546000044380000003800004645000080
:103a7c00463800000038000045440000453800007e
:103a8c0000300000484a00004930000000300000bf
:103a9c00494a000048300000003000004a4900004c
:103aac004a30000000300000494800004930000056
:103abc00003c000040420000413c0000003c000083
:103acc0041420000403c0000003c0000424100002c
:103adc00423c0000003c000041400000413c000022
:103aec00003c000040420000217c0000003c000033
:103afc0041420000207c00000038000042410000e0
:103b0c0022780000003c000041400000217c0000b5
:103b1c00004e000051710000110a00000058000016
:103b2c006464000024100000007c00000a110000f6
:103b3c00227d000000780000120900000a710000cc
:103b4c000000000000040000020100000001000061
:103b5c000204000000000000000000000200000051
:103b6c00020000000030000048450000402000002a
:103b7c0000000000007b0000000000000038000086
:103b8c004444000038440000004000003e4900005e
:103b9c00493600000008000004080000700c00000a
:103bac000060000050480000506000000020000041
:103bbc0052550000593000000038000054540000e9
:103bcc005400000000000000007f000041000000d5
:103bdc00004000002214000018600000007c00006f
:103bec00202000001c200000004400003c040000c9
:103bfc007c440000004000003c120000120c00004d
:103c0c0000410000635500004941000000380000ed
:103c1c00444400003c04000000080000043c000088
:103c2c004424000000080000147f00001408000069
:103c3c00004e000071010000714e000000450000b4
:103c4c002911000029450000000d00005151000011
:103c5c00513d0000000000000005000002050000be
:103c6c000040000000400000004000000000000088
:103c7c00081c00003e000000001c00001c1c000082
:103c8c0000000000000000007008000007000000a9
:103c9c000000000008080000080000000000000000
:103cac001d150000170000000000000007050000b3
:103cbc000700000000000000111500000a000000c1
:103ccc0000000000000000000000000000040000e4
:103cdc003c41000020000000007c00001615000094
:103cec0016080000002100001608000034420000f5
:103cfc00007f0000091d00000103000000380000d7
:103d0c00545400001408000000000000007c000067
:103d1c0040400000007f00000e1c0000387f0000b7
:103d2c0000410000225d0000221c0000001c00006d
:103d3c003e1c000008000000007f00007f7f000098
:103d4c007f7f0000007700007b0100007b77000084
:103d5c00007f000043750000437f0000007f0000df
:103d6c006f550000437f0000004000004040000001
:103d7c004040000000440000425f0000424400004c
:103d8c00004000005e4500005e4000000040000066
:103d9c00485500005e4000000000000004080000d0
:103dac001020000000030000070e00001c3800006b
:103dbc0000010000030700000f1f0000007c000042
:103dcc00787000006040000000080000081c000033
:103ddc00221c0000000000001c2200001c0000003f
:103dec000002000000080000002000000004000099
:103dfc003e3f00003e040000001000003e7e00002c
:103e0c003e100000005500002a5500002a55000005
:103e1c00002400002a7f00002a1200000004000089
:103e2c001e1f00001e040000000000000000000027
:103e3c000000000000000000000000000000000076
:103e4c000000000000000000000000000000000066
:103e5c000000000000000000000000000000000056
:103e6c000000000000000000000000000000000046
:103e7c000000000000000000000000000000000036
:103e8c000000000000000000000000000000000026
:103e9c000000000000000000000000000000000016
:103eac000000000000000000000000000000000006
:103ebc000000000000000000416300007469000075
:103ecc0076650000722000006c6500002020000068
:103edc00202000002020000020200000626c000048
:103eec0075650000746f00006f740000682000009e
:103efc003f0000004f750000690000004e6f00008d
:103f0c006e000000437900006c6900006e640000d4
:103f1c007265000020640000652000002020000075
:103f2c002020000020720000656600006572000011
:103f3c00656e000063650000003100000032000077
:0c3f4c0000330000003400000000000002
:020000040000fa
:103f58000000fa00c482a9006000b80092040700bb
:103f6800c482a8006000b8008f040700c482a900ba
:103f78006000b8008c0407000080fa00000006000a
:103f88000800fa0040168000004f780020168000d4
:103f980000407800614060000080fb001007980036
:103fa800201680000000d100614060000080fb0006
:103fb80020079800c402a800c422a800c482a9004f
:103fc800400020000100200077040700c462a80018
:103fd800c442a900f00f20004016880040002000cd
:103fe8000100200070040700c482a80040012000de
:103ff800010020006c040700c482a90040012000d1
:104008000100200068040700c482a80040002000c6
:1040180001002000640407005016800060479800e3
:10402800c482a90040002000010020005e040700af
:104038001e80fb00401688001e009000004078009b
:10404800614060000080fb00610060002216800073
:10405800e1ff2f0081006100010070002016880038
:104068002e00900000407800614060000080fb0056
:10407800610060000000400022168000d1ff2f0080
:104088008100610001007000201688006e409000d9
:104098000080fa00000006000000fa006000b80086
:1040a80041040700c4e2a8006000b8003e0407000d
:1040b800c4e2a900030037004001200001002000ed
:1040c80039040700aeff07000080fb0070006000a5
:1040d8000000e000f8ff3a000080fa000000060047
:1040e8000200fa00c4e2a800c482a9006000b80077
:1040f8002d040700c402a800c422a800c462a900b5
:10410800c442a900f0032000000f7800c822ef0085
:104118001e007800501688006000b80022040700ce
:10412800c482a8006000b8001f040700c482a90068
:104138006000b8001c0407000080fa0000000600b8
:104148000200fa00c482a900c402a800c422a80080
:10415800c462a900c442a900e0032000000f78004f
:10416800c822ef001e007800501688006000b800d2
:104178000d040700c482a8006000b8000a04070004
:10418800c482a9006000b800070407000080fa0094
:10419800000006000200fa00412322000000eb00a4
:1041a8000100010041232200000420000100010059
:1041b800c402a800c422a8000040eb00004f780009
:1041c80012003700411122001e80fb00010001008f
:1041d800ca22ef00c462a900c442a8000040eb0054
:1041e800104798000400370059ff07001e40900050
:1041f8000040e800104798009e409000f0c3b300cc
:1042080080cf5000f8ff36001e4fe8001e407800af
:10421800e74f5000ebff36000080fa000000060070
:104228000600fa00404798002016800000407800f9
:10423800614060000080fb00000f780020168000bd
:104248000000d100614060000080fb00100798006a
:104258002017220000000100c442a900c462a9007e
:10426800c402a800c422a800ce40900080cbb300ae
:1042780000c070000080fb005016880034ff070063
:104288001e00780000407800614060000080fb005c
:104298006100600022168000e1ff2f0081006100ac
:1042a80001007000201688001e0090000040780071
:1042b800614060000080fb00610060000000400079
:1042c80022168000d1ff2f008100610001007000dc
:1042d800201688000080fa00000006000000fa009e
:1042e800020037006000b800af03070024ff070092
:1042f8000004e000fbff35000080fa000000060023
:104308000200fa00004f7800f4ff0700c442a8003a
:10431800c462a900c822ef001e80fb005016880066
:104328000bff0700104080000000e80010408800e4
:104338000080fa00000006000200fa00004f780032
:104348001e80fb0061006000004078000004e0006f
:1043580002003200c402a80001003700c402a9000c
:104368001e80fb00620060000000e00002003200d6
:10437800c422a80001003700c422a9000080fa0066
:10438800000006000200fa00c482a900401680005e
:10439800004f7800f00f200040168800c442a800a3
:1043a800c462a8006000b8007f030700c482a800a8
:1043b8006000b8007c030700c482a9006000b80050
:1043c80079030700c482a8006000b80076030700dc
:1043d80050168000104798006000b800720307006c
:1043e800c482a9001e80fb0040168800104080008f
:1043f8000000e800104088001e4090000080fa008d
:10440800000006000400fa00204798003147980091
:10441800b2ff07002e4090000080fb004300de0042
:10442800004078007eff0700412322003e409000b4
:104438000080fb0001000100d2ff0700004f780058
:10444800412322003e4090000080fb000100010053
:104458001e407800aaff07000080fa00000006004e
:104468000200fa00004f7800f0c3b3009e407800c5
:1044780080cf500005003e0010c0b300aeff07001b
:104488001e80fb00104088000500370020c0b300e4
:10449800a9ff07001e80fb000004b100104088003f
:1044a8008eff0700c442a900c462a9009e80fb00d9
:1044b800f0032000808060000004200001007000ec
:1044c80050168800a2fe07000080fa0000000600cf
:1044d8000400fa00004f780011479800224798001e
:1044e8001e4078004eff07001e409000dcff0700ca
:1044f8002e40900082ff07000080fa0000000600ae
:104508000400fa00004f78001147980022479800ed
:104518001e40780042ff07001e409000d0ff0700b1
:104528002e40900000c0ea0075ff07000080fa00e6
:10453800000006000800fa0040479800514798001c
:1045480062479800734798000040eb0020479800a6
:104558000000eb00000f78000a0037001e0078000a
:10456800804078005e40900000c0400020479800de
:104578007e419000ae4090004e409000d4ff07006e
:104588001e0fe8006e4090000080fb009e0f500058
:10459800f2ff3c000080fa00000006001400fa0058
:1045a8000057980011579800120f98001e5090005d
:1045b8000080fb004300de00004078000080fb0024
:1045c800200798002e009000670010003007980020
:1045d8001e5090000080fb0067006000680010001b
:1045e800400798000ec8bf008080fb004e00900076
:1045f8000008dd00204f98000e5090008080fb00de
:10460800504080000088b900800078006040800039
:104618000080400060079800ee0090007107980045
:104628000000eb00100798000d00370063802000a1
:104638009341780050408000004178007e0090004f
:10464800804078001e00780000407800b9ff07001d
:104658001e0fe8001e0090000000e80010079800f8
:104668009e0090003e009000808f5000efff3500c4
:10467800ee00900071079800633e220006c8bf0054
:104688008080fb007e0090007e0190000201e8001f
:104698007207980001017800800078001e007800f9
:1046a8000300010040408000004178007e00900037
:1046b800804078001e00780000407800ae499000e5
:1046c8009cff070040408000fe00900000804000f2
:1046d80070079800633e220006c8bf000080fb00f8
:1046e80000017800fe0090001e0078000300010021
:1046f800ee009000710798001e0fe8000000eb0024
:104708001007980029003700ee0090007107980004
:10471800633e220006c8bf008080fb007e00900038
:104728007e0190000201e8007207980001017800fc
:10473800800078001e00780003000100e38020005c
:104748009341780040408000004178007e0090004e
:10475800804078001e0078000040780075ff070050
:1047680040408000fe0090000080400070079800e4
:10477800633e220006c8bf008080fb007e009000d8
:104788007e0190000201e80072079800010178009c
:10479800800078001e007800030001001e0fe8006a
:1047a8001e0090000000e800100798009e0090008e
:1047b8002e009000808f5000d3ff35000080fa0053
:1047c800000006000800fa0040479800514798008a
:1047d800624798006e4090000000fb0010079800a8
:1047e8000000eb00000f78000e0037001e0090005c
:1047f8006600b900000078001e00400021962900dc
:104808006140780000417800de4090004e40900002
:104818002fff07005e4090000040e80050479800d6
:104828001e0fe8001e007800e60f5000efff34006e
:104838000080fa00000006000800fa0040479800cf
:1048480051479800624798006e4090000000fb00b6
:10485800100798000000eb00000f78000f003700e9
:104868001e0090006600b900000078001e0040009d
:10487800219629006140780000c0ea0000417800d4
:10488800de4090004e40900011ff07005e4090000f
:104898000040e800504798001e0fe8001e0078000e
:1048a800e60f5000eeff34000080fa00000006001a
:1048b8000600fa00200798000040eb00004f78003f
:1048c8000040eb00104798000040eb00204798009c
:1048d800170037002e4090000080fb00e6004000e3
:1048e800f0072000808f5000050034000040eb00e6
:1048f800204798001e4090000040e80010479800ac
:104908001e00fb00ae0090000080400010407800c0
:104918001e4fe80000417800ae4090001e40900015
:10492800a8ff07002e4090000040e80020479800ac
:104938001e00fb00ae009000008040001040780090
:104948000004e000e3ff3a000080fa0000000600df
:104958000600fa004047980000c8b300004f7800ee
:104968000000eb0010079800170037004e40900039
:104978001e4060000004e000070032001040800084
:1049880080407800004080000040780012c3b300e7
:104998008cff070006003700104080008040780038
:1049a800004080000040780002c3b30085ff070084
:1049b8001e0090000000e800100798001e80fb0011
:1049c8000000d100004f78001e009000e70f500053
:1049d800e6ff34000080fa00000006000800fa0034
:1049e80020479800314798004247980033079800bd
:1049f8000000eb00000f78000e0037004e409000da
:104a08000080fb004200dd001e0040006193290089
:104a18006140780000417800be4090002e40900030
:104a2800abfe07003e4090000040e8003047980089
:104a38001e0fe8001e007800e40f5000efff34005e
:104a48000080fa00000006000600fa00200798001f
:104a58002016800000407800614060000080fb0064
:104a6800000f7800201680000000d100614060002f
:104a78000080fb0010079800c402a800c422a80008
:104a8800c822ef0015fe0700c442a900c462a900ad
:104a9800ae009000f00f200080806000000c200025
:104aa800010070005016880029fd07001e007800dc
:104ab80000407800614060000080fb0061006000f9
:104ac80022168000e1ff2f008100610001007000c4
:104ad800201688001e0090000040780061406000a9
:104ae8000080fb006100600000004000221680008a
:104af800d1ff2f008100610001007000201688009e
:104b08000080fa00000006000400fa001007980070
:104b18000040eb00004f7800170037000040eb0022
:104b2800104798000f0037001e80fb00c700dd000b
:104b38001e4090000080fb00008040009e00900016
:104b48000080400010407800004178009e409000ae
:104b58001e4078005efe07001e4090000040e800fe
:104b6800104798009e409000b0c7b30080cf500017
:104b7800edff36001e4fe8001e407800e74f50005a
:104b8800e6ff36000080fa00000006000200fa0086
:104b98000000eb00000f7800c482a900400020004c
:104ba8000100200080010700c462a800c442a900d7
:104bb80040002000010020007b010700c482a800fb
:104bc800400120000100200077010700c482a900ed
:104bd800400120000100200073010700c482a800e2
:104be80040002000010020006f01070050168000df
:104bf800000f7800c482a9004000200001002000b6
:104c080069010700000820001e0060000080fa000b
:104c1800000006000200fa00000f78001e0078006d
:104c2800104078000080fb000001eb008000780055
:104c38000000eb0059fe07001e00e8001040780055
:104c48000080fb000001eb008000780010002000cd
:104c580052fe07001e80e800104078000080fb002c
:104c68000001eb0080007800200020004bfe0700c8
:104c78009e00780063804000104078000080fb00b0
:104c88000001eb00800078003000200043fe0700a0
:104c98000080fa00000006000a00fa0020079800c9
:104ca80031079800024f98000040eb00004f780051
:104cb8002e009000204798000040eb001047980015
:104cc800230037001e4090000080fb00e6004000f3
:104cd80000042000808f500027003c000e48900000
:104ce800e14f50000c003a001e00fb00be0090008f
:104cf80000804000104078000001fb001e4fe800d3
:104d08001e4090008080fb002e4090000080fb0039
:104d1800c9fe07000b0037001e00fb00be00900014
:104d280000804000104078000001fb001e4fe800a2
:104d38001e4090008080fb002e4090000080fb0009
:104d4800a0fe07001e4090006640400010479800f3
:104d58001e00fb00be00900000804000104078005c
:104d68000004e000050032001e407800e94f5000c2
:104d7800d4ff340001003700000000000080fa0072
:104d8800000006000a00fa00204798003147980002
:104d98002207980033079800440798000040eb006a
:104da800004f7800be409000114798004e009000d8
:104db8000000e00032003a00f007200040079800a9
:104dc800300037003e4090000080fb00e6004000c5
:104dd8004e009000808f5000050034009e409000e7
:104de800314798002e4090000040e8002047980086
:104df8003e009000e10f50000f003a001e00fb003b
:104e0800ae00900000804000104078000001fb00d8
:104e18001e4fe8003e4090008080fb002e4090002e
:104e28000080fb0084fe07003e4090006640400082
:104e3800304798000e0037001e00fb00ae009000bf
:104e480000804000104078000001fb001e4fe80081
:104e58003e4090008080fb002e4090000080fb00c8
:104e680058fe07003e4090006640400030479800da
:104e78003e4090000040e8003047980001003700ad
:104e8800000000001e00fb00ae0090000080400003
:104e9800104078000004e000caff3a000080fa00e1
:104ea800000006000000fa000080fa00000006007a
:104eb8001200fa00889fbe00500798006207980009
:104ec80073079800010f98000e0890004200dd005b
:104ed800de009000008040001001be00120798001c
:104ee800230798000000eb00000f78001c00370033
:104ef8006e009000fe009000f6ed0700004078007c
:104f08000080fb00cf80de000dee07000004be002d
:104f18001e0078004200dd00de00900000804000a6
:104f28001000be001e019000ae0190005aee07006e
:104f38000001be000800be0057ee07000200200076
:104f48000320240086ed0700e2ed0700804078008a
:104f5800660047001e004000014878001e0fe80068
:104f68001e007800e30f5000e1ff34004f04be003c
:104f78000080fa00000006000000fa000080fa0035
:104f8800000006000000fa000080fa000000060099
:104f98000000fa000080fa00000006000000fa0095
:104fa8000080fa00000006000000fa000080fa0005
:104fb800000006000000fa0076fc07000002eb0083
:104fc8008001eb0022f62900f100200010002000eb
:104fd8006cff07000002eb008001eb0002f82900db
:104fe800a10020005000200066ff07000002eb002f
:104ff8001300200042f82900a105200050002000dd
:1050080060ff070000902000d10320006600070021
:105018000002eb001300200002f82900a100200084
:105028005000200057ff07000002eb008001eb0052
:1050380042f82900a10520005000200051ff070078
:1050480000982b00a10220005700070051fc070020
:105058000002eb008001eb0082f82900f10020003b
:105068001000200047ff07000002eb00130020009b
:1050780032fa2900510020005000200041ff0700ab
:105088000002eb008001eb0052fa290031022000f7
:10509800500020003bff07000002eb008001eb00fe
:1050a80072fa2900110420005000200035ff070083
:1050b8000002eb008001eb0092fa2900f1052000c4
:1050c800500020002fff070000402d0001032000a2
:1050d800350007000002eb008001eb0032fa2900de
:1050e800510020005000200026ff07000002eb00be
:1050f8001300200052fa290031022000500020003d
:1051080020ff070000f824002101200026000700e6
:105118000002eb008001eb0052fa29003102200066
:105128005000200017ff07000002eb0013002000ca
:1051380072fa2900110420005000200011ff070016
:1051480000902000d10320001700070011fc070081
:105158000080fa00000006000000fa003f00070087
:105168000080fa00000006000200fa00c022ef00ea
:10517800c822ef00e224ef000040eb00004f780067
:10518800d7fb0700605329005ffe0700009020004e
:10519800d10320000400070086ff0700eeff070088
:0851a8000080fa00000006007f
:020000040000fa
:1051b000f03fb1000180b10006003500ee030900a8
:1051c00000000000403fb1000180b100fbff3d0046
:1051d0001000b000203fb000020035000080090040
:0851e0000000000000000600c1
:020000040000fa
:1051e8000000fa000080fa00000006000000fa0043
:1051f8000080fa00000006000000fa000080fa00b3
:10520800000006000000fa000080fa000000060016
:020000040000fa
:105218000008000008000000000000000808000066
:10522800080000000200000014001800001c000024
:08523800ff000000000000006f
:020000040000fa
:105240000000fa000080fa00000006000000fa00ea
:105250000080fa00000006000000fa000080fa005a
:10526000000006000000fa00c093220000000100c8
:105270000080fa00000006000000fa000080fa003a
:10528000000006000000fa000080fa00000006009e
:0c5290000000fa000080fa000000060098
:020000040000fa
:0200000401f009
:04000000ffff0000fe
:020000040000fa
:0200000401f009
:04000800ffff0000f6
:020000040000fa
:0200000401f009
:04000c0058ff000099
:020000040000fa
:0200000401f009
:04001000bbff000032
:020000040000fa
:0200000401f009
:04001400ffff0000ea
:020000040000fa
:0200000401f009
:04001800f7ff0000ee
:020000040000fa
:0200000401f009
:04001c00feff0000e3
:00000001FF
