:020000040000fa
:080000000002040000000000f2
:020000040000fa
:100008009a0200009a0200009a0200009a02000078
:100018009a0200009a0200009a0200009a02000068
:100028009a0200009a0200009a0200009a02000058
:100038009a0200009a0200009a0200009a02000048
:020000040000fa
:020000040000fa
:100400000f8020000eff20000e0188000000000079
:10041000000020000000e000020032000001200087
:10042000200288000c00070040a9200001002000e5
:1004300011000700000020000000e0000200320070
:100440000000020000000000e809020000000000b7
:100450000040da000000fe004440a90000402000f7
:100460000000e0000300320000002000a00188002e
:100470004440a80000000600910188008000780038
:100480000000eb0015003700e280400032a0b4000d
:100490009101ba00e280400032a0b4009102ba009b
:1004a000e280400032a0b4000002eb00472bde00e7
:1004b000f507b200602ce10004003a000059eb009f
:1004c0008301e900fdff3e00040037006128e100e0
:1004d000010032000082eb00040007001101ba00a5
:1004e0000200e000e8ff3a00000006003159ba00bf
:1004f0008301e9000c0032002159ba008301e900b0
:10050000080032000400e00003003a00e2804000ee
:1005100032a0b400f5ff370011d9ba008301e90019
:10052000faff3a008100e800e180400032a0b40008
:0c053000000006000040da000000fe00a1
:020000040000fa
:10053c0000000000000000000000000000000000af
:10054c00000000000000000000000000000000009f
:10055c00000000000000000000000000000000008f
:10056c000000000000000000c0fc000004080000b7
:10057c000810000010200000204000004000000087
:10058c0080800000800000000000000000000000df
:10059c00000000000000000080800000004000000f
:1005ac0040000000201000001008000004040000af
:1005bc000c1800001020000020400000400000003b
:1005cc00808000008000000000000000000000009f
:1005dc00000000000000000080800000000000000f
:1005ec00404000002020000010100000182c0000db
:1005fc00fcfc000080000000000000000000000077
:10060c0000000000000000000000000000000000de
:10061c0000000000000000000000000000000000ce
:10062c0000000000000000000000000000000000be
:10063c0000000000000000000000000000000000ae
:10064c00000000000000000000000000000000009e
:10065c00000000000000000000000000000000008e
:10066c000000000000000000ffff00000000000080
:10067c00000000000000000000000000000000006e
:10068c0000e00000e0e00000e0e10000e1e100003b
:10069c00e1e0000000600000e0e00000e00000008d
:1006ac0000e00000e0e00000e0e00000008000005e
:1006bc00e0e00000e060000000e00000e0e000008e
:1006cc00e000000020e00000e0e10000c1010000bb
:1006dc00e1e00000e0e0000000000000000000008d
:1006ec0000000000000000000000000000000000fe
:1006fc00ffff0000ff0000000000000000000000f1
:10070c0000000000000000000000000000000000dd
:10071c0000000000000000000000000000000000cd
:10072c0000000000000000000000000000000000bd
:10073c0000000000000000000000000000000000ad
:10074c00000000000000000000000000000000009d
:10075c00000000000000000000000000000000008d
:10076c0000000000000000000fff0000fe800000f1
:10077c00000000000000000000000000000000006d
:10078c000000000000000000ffff0000ffff000061
:10079c0000000000000000007fff0000ffff0000d1
:1007ac00f0ff0000ff1f0000ffff0000c0ff000073
:1007bc00ffff00007f00000000ff0000ffff0000b3
:1007cc00ff00000000ff0000ffff00007ffc0000a6
:1007dc00ffff0000ffff0000000000000000000011
:1007ec0000000000000000000000000000c000003d
:1007fc00ffff0000010000000000000000000000ee
:10080c0000000000000000000000000000000000dc
:10081c0000000000000000000000000000000000cc
:10082c0000000000000000000000000000000000bc
:10083c0000000000000000000000000000000000ac
:10084c00000000000000000000000000000000009c
:10085c00000000000000000000000000000000008c
:10086c000000000000000000000100001fff00005d
:10087c00f8c00000000000000000000000000000b4
:10088c0000000000000000001f1f00001f1f0000e0
:10089c000000000000000000001f00001f1f0000ef
:1008ac001f1f000003000000071f00001f1f000097
:1008bc001f0f000000000000001f00000f0f0000c1
:1008cc001f000000001f00001f0f000000030000ad
:1008dc001f0f00001f0f00000000000000000000b0
:1008ec00000000000000000000c00000f87f0000c5
:1008fc000f000000000000000000000000000000dd
:10090c0000000000000000000000000000000000db
:10091c0000000000000000000000000000000000cb
:10092c0000000000000000000000000000000000bb
:10093c0000000000000000000000000000000000ab
:10094c00000000000000000000000000000000009b
:10095c00000000000000000000000000000000008b
:10096c00000000000000000000000000000000007b
:10097c00071f0000fcf00000e00000000000000079
:10098c00000000000000000000000000ffff00005d
:10099c00ffff0000fffe0000c0fe0000ffff000094
:1009ac00ffff0000ff00000000f00000ffff000050
:1009bc007f3f0000ffff0000f0000000000300007c
:1009cc003fff0000fff80000fcff0000ff030000e9
:1009dc00000000000000000000000000000000000b
:1009ec0000000000c0f000007e1f000003000000ab
:1009fc0000000000000000000000000000000000eb
:100a0c0000000000000000000000000000000000da
:100a1c0000000000000000000000000000000000ca
:100a2c0000000000000000000000000000000000ba
:100a3c0000000000000000000000000000000000aa
:100a4c00000000000000000000000000000000009a
:100a5c00000000000000000000000000000000008a
:100a6c00000000000000000000000000000000007a
:100a7c000000000000030000071f00007cf40000d1
:100a8c00e08000000000000000000000ffff0000fc
:100a9c00ff7f000003ff0000ffff0000037f00004a
:100aac00ffff0000ff000000f8ff0000ffff000048
:100abc001c1c0000ffff0000fff8000000e000001d
:100acc00ffff0000ff0700000fff0000fff8000011
:100adc00c00000000000000000800000e0f00000fa
:100aec003c0f0000070100000000000000000000a7
:100afc0000000000000000000000000000000000ea
:100b0c0000000000000000000000000000000000d9
:100b1c0000000000000000000000000000000000c9
:100b2c0000000000000000000000000000000000b9
:100b3c0000000000000000000000000000000000a9
:100b4c000000000000000000000000000000000099
:100b5c000000000000000000000000000000000089
:100b6c000000000000000000000000000000000079
:100b7c000000000000000000000000000000000069
:100b8c00030700000e3c000078f00000c08000005d
:100b9c000000000000000000000000000000000049
:100bac0000000000000000001010000010100000f9
:100bbc0000000000000000000010000010100000f9
:100bcc000000000000000000000000000080000099
:100bdc00c0f00000781c00000f07000001000000ae
:100bec0000000000000000000000000000000000f9
:100bfc0000000000000000000000000000000000e9
:100c0c0000000000000000000000000000000000d8
:100c1c0000000000000000000000000000000000c8
:100c2c0000000000000000000000000000000000b8
:100c3c0000000000000000000000000000000000a8
:100c4c000000000000000000000000000000000098
:100c5c000000000000000000000000000000000088
:100c6c000000000000000000000000000000000078
:100c7c000000000000000000000000000000000068
:100c8c000000000000000000000000000103000054
:100c9c00070e00001c3c00007c6c000046060000a7
:100cac00163a0000121300007b130000137b0000a7
:100cbc00131300007303000032320000060600001c
:100ccc00466c00007c3800001c0e0000070300007e
:100cdc000100000000000000000000000000000007
:100cec0000000000000000000000000000000000f8
:100cfc0000000000000000000000000000000000e8
:100d0c0000000000000000000000000000000000d7
:100d1c0000000000000000000000000000000000c7
:100d2c0000000000000000000000000000000000b7
:020000040000fa
:100d3c000000fa00c482a9006000b800e9010700b5
:100d4c00c482a8006000b800e6010700c482a900b4
:100d5c006000b800e30107000080fa000000060004
:100d6c000600fa0020168000004078006140600008
:100d7c000080fb00000f7800201680000000d100de
:100d8c00614060000080fb00100798004016800056
:100d9c0040479800f00f200040168800c442a9007c
:100dac00c462a800c402a900c422a9006000b80053
:100dbc00cc010700deff07006000b800c901070086
:100dcc0050168000504798006000b800c50107001d
:100ddc004e4090000080fb00401688001e007800fa
:100dec0000407800614060000080fb006100600002
:100dfc0022168000e1ff2f008100610001007000cd
:100e0c00201688001e0090000040780061406000b1
:100e1c000080fb0061006000000040002216800092
:100e2c00d1ff2f00810061000100700020168800a6
:100e3c005e4090000080fa00000006000000fa00fe
:100e4c006000b800a7010700c4e2a8006000b80069
:100e5c00a4010700c4e2a9000300370040012000f0
:100e6c00010020009f010700bdff07000080fb0070
:100e7c00700060000000e000f8ff3a000080fa000b
:100e8c00000006000200fa00c482a9006000b8004d
:100e9c0094010700c402a900c422a900c462a900dd
:100eac00c442a900f0032000000f7800c822ef0014
:100ebc001e007800501688006000b80089010700f9
:100ecc00c482a8006000b80086010700c482a90093
:100edc006000b800830107000080fa0000000600e3
:100eec000200fa00c482a900c402a900c422a9000d
:100efc00c462a900c442a900e0032000000f7800de
:100f0c00c822ef001e007800501688006000b80060
:100f1c0074010700c482a8006000b80071010700ca
:100f2c00c482a9006000b8006e0107000080fa00be
:100f3c00000006000200fa00000f7800c402a900ad
:100f4c00c422a900c822ef00c462a900c442a900af
:100f5c001e017800e1006100e00320000100700038
:100f6c005016880072ff07000080fa00000006008f
:100f7c000200fa000040eb00004f7800130037002d
:100f8c001e407800160007000040eb00220007000e
:100f9c00ca22ef00c462a900c442a8000040eb00c2
:100fac00104798000400370061ff07001e409000b6
:100fbc000040e800104798009e409000f0c3b3003a
:100fcc0080cf5000f8ff36001e4fe8001e4078001e
:100fdc00e74f5000eaff36000080fa0000000600e0
:100fec000200fa00004f780019000700c442a90063
:100ffc00c462a900c402a900c422a90080cbb3001a
:10100c001e4070000080fb005016880048ff07004f
:10101c000080fa00000006000200fa00004f780081
:10102c000b000700c442a900c462a9009e80fb000b
:10103c00f00320008080600000042000010070009c
:10104c00501688003aff07000080fa0000000600e6
:10105c000000fa00020037006000b8002101070010
:10106c003fff07000004e000fbff35000080fa00a2
:10107c00000006000200fa00004f7800f4ff0700a1
:10108c00c442a800c462a900c822ef001e80fb0065
:10109c005016880026ff07000080fa0000000600aa
:1010ac000200fa00004f78001e80fb006100600017
:1010bc00004078000004e00002003200c402a900e5
:1010cc0001003700c402a8001e80fb006200600013
:1010dc000000e00002003200c422a9000100370029
:1010ec00c422a8000080fa00000006000200fa00ea
:1010fc00f00f200040168800c462a800c442a8006b
:10110c000bff070050168000004f7800c822ef003c
:10111c001e4078000080fa00000006000400fa006f
:10112c002047980031479800c9ff07002e409000d7
:10113c008080fb0000042000008060000000e000c4
:10114c000300320020c0b300d5ff070002003700b7
:10115c0010c0b300d2ff07003e4090000080fb009f
:10116c004300de00004078009dff07002e409000f9
:10117c00f043b200a8ff0700dcff0700004f780027
:10118c00daff0700004f78002e409000f043b200c9
:10119c00a1ff07003e4090000080fb00670060004c
:1011ac00110020000008dd00804078001e4078000f
:1011bc0000c07000afff07000080fa0000000600be
:1011cc000600fa00200798000000eb0010079800ba
:1011dc000000eb00000f7800120037001e007800b2
:1011ec00004078007eff07001e0090000040780051
:1011fc00f043b20088ff07001e0090001e00400064
:10120c00ae009000008040001040780099ff07006d
:10121c001e007800e70f5000f0ff34000000eb00d8
:10122c00000f78009e009000f0072000808f500087
:10123c00f7ff34000080fa00000006000400fa00fa
:10124c00204798002e4090000000fb0001fe2f006c
:10125c00010f40001e0078006300b9000000780008
:10126c00000f7800e06928001e0040001040780054
:10127c0080ff07001e00e800e1692800614078004b
:10128c007cff07001e80e800e169280061407800bf
:10129c0078ff07000040eb0076ff07000080fa00a3
:1012ac00000006000400fa00100798000040eb0054
:1012bc00004f7800060037001e00fb009e009000d7
:1012cc0000804000104078001e4fe800dbff070054
:1012dc001e00fb009e009000008040001040780033
:1012ec000004e000f4ff3a000080fa000000060061
:1012fc000400fa00100798000040eb00004f780043
:10130c00060037001e00fb009e009000008040008d
:10131c00104078001e4fe800c8ff07001e00fb00bd
:10132c009e00900000804000104078000004e00017
:10133c00f4ff3a000080fa00000006000200fa00f8
:10134c000000eb00000f7800c482a90040002000d0
:10135c000100200063000700c462a800c442a90079
:10136c0040002000010020005e000700c482a8009d
:10137c0040012000010020005a000700c482a9008f
:10138c00400120000100200056000700c482a80084
:10139c004000200001002000520007005016800081
:1013ac00000f7800c482a90040002000010020003a
:1013bc004c000700000820001e0060000080fa00ae
:1013cc00000006000400fa000000eb00000f78009b
:1013dc000000eb0010079800c022ef00c822ef00bd
:1013ec00c4e2a800c482a800c402a900c422a900b7
:1013fc00a4fe0700a3fe0700ddfe0700e02928007d
:10140c006fff070000d022001113200035000700e9
:10141c0000042000000f7800150037000000eb00de
:10142c00100798000b0037001e00900080407800d9
:10143c001e0078000040780038ff070000482800a4
:10144c00e1012000270007001e0090000000e800ca
:10145c00100798001e009000e90f5000f2ff3400b6
:10146c0000902000d10320001e0007001e0fe80092
:10147c00f00720009e007800808f5000e7ff3400ba
:10148c00800220000100200016000700f00f200051
:10149c004016880032fe07004001200001002000a9
:1014ac0010000700c822ef004000200001002000bf
:1014bc000c0007008afe07004001200001002000fc
:1014cc0008000700f00f20004016880024fe0700db
:1014dc00c00320000100200002000700c822ef001a
:0414ec00c4ff370002
:020000040000fa
:1014f000f03fb1000180b10006003500ee030900a5
:1015000000000000403fb1000180b100fbff3d0042
:101510001000b000203fb00002003500008009003c
:081520000000000000000600bd
:020000040000fa
:0415280000000000bf
:020000040000fa
:0200000401f009
:04000000ffff0000fe
:020000040000fa
:0200000401f009
:04000800ffff0000f6
:020000040000fa
:0200000401f009
:04000c0058ff000099
:020000040000fa
:0200000401f009
:04001000bbff000032
:020000040000fa
:0200000401f009
:04001400ffff0000ea
:020000040000fa
:0200000401f009
:04001800f7ff0000ee
:020000040000fa
:0200000401f009
:04001c00feff0000e3
:00000001FF
